:020000040800F2
:10000000A00F00206D020008692A0008812800085E
:10001000652A0008B10600086130000800000000F1
:10002000000000000000000000000000F92D0008A2
:100030005D08000800000000D92A0008512E0008C1
:10004000870200088702000887020008870200086C
:10005000870200088702000887020008870200085C
:10006000870200088702000887020008870200084C
:10007000870200088702000887020008870200083C
:10008000870200088702000887020008870200082C
:10009000870200088702000887020008870200081C
:1000A000870200088702000887020008870200080C
:1000B00087020008870200088702000887020008FC
:1000C000870200088702000887020008DD2A00086E
:1000D00087020008870200088702000887020008DC
:1000E00087020008870200088702000887020008CC
:1000F00087020008870200088702000887020008BC
:1001000087020008870200088702000887020008AB
:10011000870200088702000887020008870200089B
:10012000870200088702000887020008B506000859
:10013000870200080000000000000000870200089D
:10014000870200088702000887020008870200086B
:10015000870200088702000887020008870200085B
:10016000870200088702000887020008870200084B
:1001700087020008870200088702000800000000CC
:1001800000000000870200080000000000000000DE
:10019000870200080000000000000000870200083D
:1001A00000000000000000000000000087020008BE
:1001B00087020008870200088702000887020008FB
:1001C0008702000800F002F800F040F80AA090E86A
:1001D000000C82448344AAF10107DA4501D100F002
:1001E00035F8AFF2090EBAE80F0013F0010F18BF8F
:1001F000FB1A43F001031847B8470000D847000036
:10020000103A24BF78C878C1FAD8520724BF30C842
:1002100030C144BF04680C60704700000023002414
:1002200000250026103A28BF78C1FBD8520728BF06
:1002300030C148BF0B6070471FB504F099FB9DE8C3
:10024000030000F021F91FBD10B510BD00F0AEF99C
:100250001146FFF7F1FF03F071FF00F0CCF903B492
:10026000FFF7F2FF03BC00F0FDF9000009488047EA
:1002700009480047FEE7FEE7FEE7FEE7FEE7FEE788
:10028000FEE7FEE7FEE7FEE704480549054A064BA0
:1002900070470000112F0008C5010008A0090020C8
:1002A000A00F0020A00B0020A00B002070B5064678
:1002B00000F0CEF8056806F10B0020F00704B44208
:1002C0009CBF002070BD2B466A68BAB11068A0427E
:1002D00010D304F1080188423CBF5068586007D32E
:1002E0005168101941601168091B01605860146061
:1002F000101D70BD13465268002AE7D121462846DA
:1003000000F0AEF80028DED170BD53EA020C00F018
:1003100069802DE9F04B4FF00006002B1FBFB3FAA8
:1003200083F503FA05F424FA05F65E4012BF16437E
:10033000B2FA82F502FA05F4C5F120051EBF22FAD1
:1003400005FC44EA0C04203556EA044C4FEA1444F8
:1003500018BF641C4FF000084FF00009904271EB89
:10036000030C39D3002919BFB1FA81F701FA07F656
:10037000B0FA80F700FA07F6C7F120071EBF20FA8F
:1003800007FC46EA0C062037B6FBF4FCA7EB050792
:10039000103F07F01F0BCBF120062CFA06F60CFAE3
:1003A0000BFB44BFB3460026202FA4BF5E464FF090
:1003B000000B5BEA060C08BF4FF0010B19EB0B09B1
:1003C00048EB0608ABFB027C06FB02CC0BFB03CC24
:1003D000C01B71EB0C01C1E70B4602464146484683
:1003E000BDE8F08B13B5084318BF4FF0FF3001464E
:1003F000AFF30080BDE81C4070474FF0000200B52D
:10040000134694469646203922BFA0E80C50A0E837
:100410000C50B1F12001BFF4F7AF090728BFA0E8E5
:100420000C5048BF0CC05DF804EB890028BF40F8B1
:10043000042B08BF704748BF20F8022B11F0804FF3
:1004400018BF00F8012B70477047704770470000D5
:100450000048704718000020704770477047704789
:1004600038B504460A4600206946AFF300800028EC
:1004700008BF38BD02460099204600F075F80120FB
:1004800038BD012000F08AB8F8B5AFF3008005460A
:1004900000200C46102000BF0646A819A0420DD926
:1004A000324669460020AFF30080070008BF00F025
:1004B00075F80098A04218BF0546C419FFF7C8FF99
:1004C00005600746F01D20F007004619284600F099
:1004D0000AF8B44208BFF8BDA21B31463868BDE82F
:1004E000F84000F041B800210160C0E901107047F8
:1004F0001020704770B50446051FFFF7A9FF00687C
:10050000002C14BF446870BD002C18BFAC423CBF27
:1005100020466468F8D301680A18AA4218BF4560EB
:1005200003D12A6805461144016028684119A14297
:100530001CBF6C6070BD61686960216808442860F8
:1005400070BD10B500F00CF8006810BD10B5044681
:1005500000F006F8046010BD00487047100000204D
:100560000048704710000020034640688C46002871
:1005700018BF88423CBF03464068F8D31868184447
:10058000884207D00CF1030020F00700001D411A3B
:10059000521A0146081D0A60FFF7ACBF10B500F003
:1005A00039F8BDE8104000F02FB870477546FFF7E6
:1005B000D3FFAE4605006946534620F00700854646
:1005C00018B020B5FFF760FEBDE820404FF00006F0
:1005D0004FF000074FF000084FF0000BAC46ACE8BE
:1005E000C009ACE8C009ACE8C009ACE8C00921F01A
:1005F00007018D46704710B50446AFF300802046D2
:10060000BDE81040FFF72BBE002801D000F02AB84B
:100610007047000010B5012805D0002103A000F0AC
:1006200027F8012010BD09A1F8E7000053494752FF
:10063000544D454D3A204F7574206F6620686561B2
:1006400070206D656D6F7279000000003A2048657A
:100650006170206D656D6F727920636F7272757055
:100660007465640001491820ABBEFEE72600020055
:1006700070B505460C460A2000E06D1C00F011F82C
:1006800035B128780028F8D102E0641C00F009F8A0
:1006900014B120780028F8D1BDE870400A20AFF3EB
:1006A000008008B569468DF800000320ABBE08BD88
:1006B000FFE7FEE780B540F27400C2F2000000F0F0
:1006C000FDF880BD82B001900198007810384AF69C
:1006D000AB21CAF6AA21A0FB0110000900900099E5
:1006E00044F6A210C0F60000405C0199C86500986D
:1006F000042807D3FFE701990868042262F3090080
:10070000886506E00199086840F2FF3290438865E9
:10071000FFE70198806D02B07047000086B0059039
:1007200000208DF813000598806A03900598806971
:1007300010BBFFE70398029003281BD80299DFE85B
:1007400001F0020D0218059890F82F00C00720B1A3
:10075000FFE701208DF81300FFE70CE00598C06A61
:10076000B0F1C07F04D1FFE701208DF81300FFE74F
:1007700001E000E0FFE745E005988069B0F5005F23
:1007800025D1FFE70398019003281ED80199DFE8DF
:1007900001F00206021101208DF8130016E0059801
:1007A00090F82F00C00720B1FFE701208DF813005B
:1007B000FFE70BE00598C06AB0F1C07F04D1FFE706
:1007C00001208DF81300FFE700E0FFE719E0039830
:1007D0000090032804D3FFE70098032804D00EE01C
:1007E00001208DF813000BE0059890F82F00C0074A
:1007F00020B1FFE701208DF81300FFE700E0FFE7DD
:10080000FFE7FFE79DF8130006B0704784B0039040
:1008100002910192009303980168086820F48020F7
:100820000860009803990968486003988068402828
:1008300009D1FFE701980399096888600298039934
:100840000968C86008E002980399096888600198FF
:1008500003990968C860FFE704B07047704700005B
:1008600072B6FFE7FEE7000082B00090009890F8B3
:100870003500022807D0FFE7009980204865012055
:100880008DF807000EE00099052081F835000098EA
:100890000168086820F001000860FFE700208DF87B
:1008A0000700FFE79DF8070002B0704781B0009095
:1008B000009890F8350001B07047000080B586B010
:1008C00005900020039040F20000C2F20000006892
:1008D00048F2B511C1F64E31A0FB0110800A02901A
:1008E0000598806D0190019800680490049805991E
:1008F000C96DC840000700281AD5FFE705980068B1
:1009000000684007002812D5FFE7059801680868CD
:1009100020F0040008600598C16D08208840019906
:1009200088600599486D40F001004865FFE7FFE7E2
:1009300004980599C96DC840C007A0B1FFE70598A4
:1009400000684069000600280CD5FFE70598C16DD6
:1009500001208840019988600599486D40F00200A7
:100960004865FFE7FFE704980599C96DC84040074F
:10097000002814D5FFE70598006800688007002864
:100980000CD5FFE70598C16D042088400199886067
:100990000599486D40F004004865FFE7FFE70498BB
:1009A0000599C96DC840C006002847D5FFE70598DE
:1009B00000680068000700283FD5FFE70598C16D73
:1009C00010208840019988600598006800684003FD
:1009D00000281AD5FFE70598006800680003002882
:1009E00009D4FFE70598006C20B1FFE70598016C7A
:1009F0008847FFE708E00598806C20B1FFE705987D
:100A0000816C8847FFE7FFE716E0059800680068FB
:100A1000C005002807D4FFE705980168086820F0A2
:100A200008000860FFE70598006C20B1FFE7059813
:100A3000016C8847FFE7FFE7FFE7FFE704980599A8
:100A4000C96DC8408006002840F18D80FFE70598F9
:100A500000680068C006002840F18480FFE7059820
:100A6000C16D2020884001998860059890F8350074
:100A7000052834D1FFE705980168086820F01600C2
:100A8000086005980168486920F080004861059871
:100A9000006C20B9FFE70598806C38B1FFE7059836
:100AA0000168086820F008000860FFE70598C16D3C
:100AB0003F208840019988600599012081F8350020
:100AC000FFE70599002081F83400FFE70598006DE5
:100AD00020B1FFE70598016D8847FFE77BE00598A7
:100AE00000680068400300281AD5FFE705980068F1
:100AF00000680003002809D4FFE70598406C20B186
:100B0000FFE70598416C8847FFE708E00598C06B50
:100B100020B1FFE70598C16B8847FFE7FFE720E0BA
:100B2000059800680068C005002811D4FFE7059803
:100B30000168086820F0100008600599012081F81C
:100B40003500FFE70599002081F83400FFE7FFE753
:100B50000598C06B20B1FFE70598C16B8847FFE798
:100B6000FFE7FFE7FFE70598406DA0B3FFE70598B3
:100B7000406DC00730B3FFE70599052081F83500C7
:100B800005980168086820F001000860FFE70398F5
:100B9000013003900299884201D9FFE707E0FFE79F
:100BA000059800680068C0070028F0D1FFE70599A4
:100BB000012081F83500FFE70599002081F8340015
:100BC000FFE7FFE70598C06C20B1FFE70598C16C0F
:100BD0008847FFE7FFE706B080BD000080B586B01C
:100BE00004900020039000F01BFB0290049820B9B1
:100BF000FFE701208DF81700A3E00498406A08B1D0
:100C0000FFE7FFE70499022081F83500FFE7049928
:100C1000002081F83400FFE704980168086820F09C
:100C200001000860FFE7049800680068C00790B101
:100C3000FFE700F0F5FA0299401A06280AD3FFE709
:100C40000499202048650499032081F835008DF827
:100C5000170076E0E7E704980068006803900398BF
:100C600048F23F01CFF2100108400390049900912F
:100C70004868D1F808C0CB680A6940EA0C001843FC
:100C800010434A6910438A691043CA691043096ACC
:100C900001430398084303900498406A042808D14C
:100CA000FFE70499C86A096B01430398084303905E
:100CB000FFE7039804990968086004980068406990
:100CC0000390039820F0070003900498416A03986A
:100CD000084303900498406A04281AD1FFE7049857
:100CE000816A0398084303900498C06A80B1FFE7C3
:100CF0000498FFF713FD50B1FFE7049940204865C1
:100D00000499012081F835008DF8170019E0FFE7FC
:100D1000FFE703980499096848610498FFF7D2FC3B
:100D200001900498C16D3F20884001998860049922
:100D300000204865049A012182F835108DF81700CB
:100D4000FFE79DF8170006B080BD000080B588B0B1
:100D5000069005910492039300208DF80B000698ED
:100D6000806D0190FFE7069890F83400012804D1C7
:100D7000FFE702208DF81F0045E00699012081F869
:100D80003400FFE7FFE7069890F8350001282BD1E3
:100D9000FFE70699022081F8350006990020486592
:100DA00006980599049A039BFFF730FD0698C16DDC
:100DB0003F2088400199886006980168086840F0E3
:100DC000160008600698006C38B1FFE706980168C5
:100DD000086840F008000860FFE7069801680868A6
:100DE00040F00100086009E0FFE70699002081F863
:100DF0003400FFE702208DF80B00FFE79DF80B00A1
:100E00008DF81F00FFE79DF81F0008B080BD0000AF
:100E100080B584B0039000F003FA0290039801902B
:100E20000198013048B1FFE740F20400C2F200002F
:100E30000178019808440190FFE7FFE700F0F0F91E
:100E40000299401A0199884201D2FFE7F6E704B0FF
:100E500080BD00008DB00C900B910020099008908F
:100E600007900A90FFE70A980F2800F2BE81FFE77B
:100E70000A990120884009900B9800680999084058
:100E8000089008980999884240F0AA81FFE70B98DA
:100E9000406800F00300012807D0FFE70B98406886
:100EA00000F0030002282FD1FFE70C98806807901C
:100EB0000A984100032000FA01F10798884307903F
:100EC0000B98C0680A99490000FA01F10798084395
:100ED000079007980C9988600C98406807900A99C9
:100EE000012000FA01F10798884307900B984068A9
:100EF000C0F300100A9900FA01F10798084307901F
:100F000007980C994860FFE70B98406800F00300D1
:100F1000032818D0FFE70C98C06807900A98410092
:100F2000032000FA01F10798884307900B98806826
:100F30000A99490000FA01F10798084307900798B9
:100F40000C99C860FFE70B98406800F00300022886
:100F500026D1FFE70C980A996FF0030202EA5101CB
:100F60000844006A07900A9800F0070081000F20EB
:100F700000FA01F10798884307900B9800690A99D5
:100F800001F00701890000FA01F107980843079072
:100F900007980C990A9B02EA530211440862FFE782
:100FA0000C98006807900A984100032000FA01F1AC
:100FB0000798884307900B98406800F003000A994F
:100FC000490000FA01F107980843079007980C9927
:100FD00008600B9880798007002800F00081FFE707
:100FE000FFE70020069043F64400C4F202000168C7
:100FF00041F480410160006800F48040069006984A
:10100000FFE70A9820F0030043F60801C4F201014B
:10101000405807900A9800F0030081000F2000FA62
:1010200001F10798884307900C980021C4F202014F
:10103000884203D1FFE70020059050E00C9840F271
:101040000041C4F20201884203D1FFE7012004906D
:1010500042E00C9840F60001C4F20201884203D13C
:10106000FFE70220039034E00C9840F60041C4F200
:101070000201884203D1FFE70320029026E00C988A
:1010800041F20001C4F20201884203D1FFE70420CB
:10109000019018E00C9841F20041C4F2020188422C
:1010A00003D1FFE7052000900AE00C9941F6000209
:1010B000C4F202020720914208BF06200090FFE719
:1010C00000980190FFE701980290FFE702980390D3
:1010D000FFE703980490FFE704980590FFE7059861
:1010E000C0B20A9901F00301890000FA01F10798E2
:1010F0000843079007980A9921F0030143F6080274
:10110000C4F20102885043F60840C4F201000068AE
:10111000079008990798884307900B988079C00634
:10112000002805D5FFE70899079808430790FFE7CF
:10113000079843F60841C4F20101086043F60C40E9
:10114000C4F2010000680790089907988843079047
:101150000B9880798006002805D5FFE70899079845
:1011600008430790FFE7079843F60C41C4F20101DA
:10117000086043F60440C4F2010000680790089933
:101180000798884307900B9880798007002805D539
:10119000FFE70899079808430790FFE7079843F689
:1011A0000441C4F20101086043F60040C4F20100AA
:1011B0000068079008990798884307900B988079F2
:1011C000C00728B1FFE70899079808430790FFE791
:1011D000079843F60041C4F201010860FFE7FFE70A
:1011E000FFE70A9801300A903DE60DB07047000015
:1011F00082B00190ADF802108DF801209DF8010039
:1012000028B1FFE7BDF802000199886105E0BDF84B
:101210000200000401998861FFE702B070470000F6
:1012200040F69810C2F200000068704740F20400D7
:10123000C2F20000027840F69811C2F2000108687C
:10124000104408607047000080B582B043F600414A
:10125000C4F20201086840F400700860086840F4B5
:1012600080600860086840F480700860032000F027
:101270008FF80020019000F005F800F03BF801988D
:1012800002B080BD80B582B0009040F20000C2F292
:101290000000006840F20401C2F200010A784FF435
:1012A0007A71B1FBF2F1B0FBF1F001F049FA20B133
:1012B000FFE701208DF8070018E000980F280DD8EF
:1012C000FFE700994FF0FF30002200F047F8009848
:1012D00040F20801C2F20001086003E001208DF82D
:1012E000070003E000208DF80700FFE79DF80700E6
:1012F00002B080BD80B582B0FFE70020019043F6C8
:101300004400C4F20200016841F4804101600068B9
:1013100000F4804001900198FFE7FFE70020009073
:1013200043F64000C4F20200016841F080510160C0
:10133000006800F0805000900098FFE7072000F060
:1013400027F802B080BD000080B582B08DF807009C
:101350009DF9070001F086FE02B080BD80B586B021
:101360008DF81700049103920020029001F092FE84
:1013700002909DF91700019002980499039A01F0D8
:1013800075FB0146019801F08DFE06B080BD00009E
:1013900080B582B00190019801F0A6FE02B080BD38
:1013A00080B584B002900191029820B9FFE7012036
:1013B0008DF80F0021E1019843F60041C4F20201CB
:1013C000096801F00F01884212D9FFE7019943F63D
:1013D0000040C4F202000170006800F00F000199A3
:1013E000884204D0FFE701208DF80F0005E1FFE7F8
:1013F00002980078800700282AD5FFE70298007835
:101400004007002809D5FFE743F60801C4F20201AE
:10141000086840F4E0500860FFE702980078000791
:10142000002809D5FFE743F60801C4F20201086865
:1014300040F460400860FFE743F60801C4F202018F
:10144000086820F0F000029A926810430860FFE7F5
:1014500002980078C00700286ED0FFE70298406825
:10146000012811D1FFE743F60000C4F20200006832
:1014700000F400310020B0EB514F04D1FFE7012010
:101480008DF80F00B9E02CE002984068022805D0E2
:10149000FFE702984068032811D1FFE743F60000F8
:1014A000C4F20200006800F000710020B0EB516F40
:1014B00004D1FFE701208DF80F009EE010E043F615
:1014C0000000C4F20200006800F002010020B0EB4E
:1014D000510F04D1FFE701208DF80F008DE0FFE7E9
:1014E000FFE743F60801C4F20201086820F0030098
:1014F000029A526810430860FFF792FE0090FFE7DF
:1015000043F60800C4F20200006800F00C000299E3
:101510004968B0EB810F0ED0FFE7FFF781FE00991D
:10152000401A41F28931884204D3FFE703208DF845
:101530000F0062E0E4E7FFE7019843F60041C4F2E0
:101540000201096801F00F01884212D2FFE70199F8
:1015500043F60040C4F202000170006800F00F0082
:101560000199884204D0FFE701208DF80F0044E084
:10157000FFE702980078400700280CD5FFE743F604
:101580000801C4F20201086820F4E050029AD2680F
:1015900010430860FFE702980078000700280DD587
:1015A000FFE743F60801C4F20201086820F4604036
:1015B000029A126940EAC2000860FFE700F04CF8A6
:1015C00043F60801C4F202010968C9B20A0944F6E7
:1015D0008A11C0F60001895CC84040F20001C2F2E5
:1015E0000001086040F20800C2F200000068FFF746
:1015F00049FE00208DF80F00FFE79DF80F0004B0B2
:1016000080BD000040F20000C2F200000068704798
:1016100080B5FFF7F7FF43F60801C4F2020109683D
:10162000C1F3822244F69A11C0F60001895CC840D9
:1016300080BD000080B5FFF7E5FF43F60801C4F266
:101640000201096889B24A0B44F69A11C0F60001FA
:10165000895CC84080BD000080B586B00020059040
:10166000049003900290019043F60800C4F2020037
:10167000006800F00C00014600910C2800F29B80ED
:101680000099DFE801F0079898980D9898981398BA
:101690009898570042F20040C0F2F400019090E0A8
:1016A00041F20020C0F27A0001908AE043F6040083
:1016B000C4F20200016801F03F0105910068400298
:1016C000002813D5FFE743F60400C4F202000068C7
:1016D000C0F3881041F20021C0F27A01A0FB0101A1
:1016E000059A0023FEF711FE049012E043F6040071
:1016F000C4F202000068C0F3881042F20041C0F258
:10170000F401A0FB0101059A0023FEF7FEFD049001
:10171000FFE743F60400C4F20200006800F4403121
:10172000022000EBD130039004980399B0FBF1F054
:10173000019046E043F60400C4F20200016801F0A3
:101740003F01059100684002002813D5FFE743F6EA
:101750000400C4F202000068C0F3881041F20021C6
:10176000C0F27A01A0FB0101059A0023FEF7CDFD2E
:10177000049012E043F60400C4F202000068C0F3D3
:10178000881042F20041C0F2F401A0FB0101059A69
:101790000023FEF7BAFD0490FFE743F60400C4F20D
:1017A00002000068C0F30270029004980299B0FB36
:1017B000F1F0019005E042F20040C0F2F400019027
:1017C000FFE7019806B080BD80B586B0049004980C
:1017D00020B9FFE701208DF8170084E30498007812
:1017E000C007002800F0BA80FFE743F60800C4F203
:1017F0000200006800F00C00042828D0FFE743F640
:101800000800C4F20200006800F00C0008280BD1A8
:10181000FFE743F60400C4F20200006800F4800011
:10182000B0F5800F13D0FFE743F60800C4F20200C2
:10183000006800F00C000C281ED1FFE743F60400FE
:10184000C4F2020000684002002815D5FFE743F605
:101850000000C4F20200006800F400310020B0EB88
:10186000514F08D0FFE70498406820B9FFE70120F6
:101870008DF8170037E370E0FFE704984068B0F593
:10188000803F09D1FFE743F60001C4F20201086876
:1018900040F48030086020E004984068B0F5A02F44
:1018A0000DD1FFE743F60001C4F20201086840F4DD
:1018B00080200860086840F4803008600CE043F63F
:1018C0000001C4F20201086820F480300860086852
:1018D00020F480200860FFE7FFE7FFE704984068F6
:1018E000E8B1FFE7FFF79CFC0390FFE743F6000039
:1018F000C4F20200006800F400310020B0EB514F48
:101900000CD1FFE7FFF78CFC0399401A652804D33C
:10191000FFE703208DF81700E5E2E7E71CE0FFF79B
:101920007FFC0390FFE743F60000C4F2020000686A
:1019300000F400310020B0EB514F0CD0FFE7FFF76F
:101940006FFC0399401A652804D3FFE703208DF844
:101950001700C8E2E7E7FFE7FFE7FFE70498007832
:101960008007002840F1A980FFE743F60800C4F291
:101970000200006810F00C0F26D0FFE743F60800C5
:10198000C4F20200006800F00C00082809D1FFE74B
:1019900043F60400C4F2020000684002002813D598
:1019A000FFE743F60800C4F20200006800F00C00F4
:1019B0000C282CD1FFE743F60400C4F202000068B3
:1019C0004002002823D4FFE743F60000C4F20200DF
:1019D000006800F002010020B0EB510F09D0FFE7D2
:1019E0000498C068012804D0FFE701208DF8170093
:1019F00079E243F60001C4F20201086820F0F80021
:101A0000049A126940EAC2000860FFE754E00498B3
:101A1000C06870B3FFE70021C4F2472101200860CD
:101A2000FFF7FEFB0390FFE743F60000C4F202005D
:101A3000006800F002010020B0EB510F0CD1FFE76D
:101A4000FFF7EEFB0399401A032804D3FFE70320B6
:101A50008DF8170047E2E7E743F60001C4F2020100
:101A6000086820F0F800049A126940EAC200086091
:101A700021E00021C4F2472100200860FFF7D0FBDD
:101A80000390FFE743F60000C4F20200006800F094
:101A900002010020B0EB510F0CD0FFE7FFF7C0FBB5
:101AA0000399401A032804D3FFE703208DF8170099
:101AB00019E2E7E7FFE7FFE7FFE704980078000790
:101AC00000284BD5FFE70498406918B3FFE740F6BC
:101AD0008061C4F2472101200860FFF7A1FB039059
:101AE000FFE743F67400C4F20200006800F0020150
:101AF0000020B0EB510F0CD1FFE7FFF791FB0399EA
:101B0000401A032804D3FFE703208DF81700EAE109
:101B1000E7E722E040F68061C4F247210020086038
:101B2000FFF77EFB0390FFE743F67400C4F2020068
:101B3000006800F002010020B0EB510F0CD0FFE76D
:101B4000FFF76EFB0399401A032804D3FFE7032035
:101B50008DF81700C7E1E7E7FFE7FFE70498007893
:101B60004007002840F1CE80FFE700208DF80700F5
:101B700043F64000C4F202000068C000002815D4FB
:101B8000FFE7FFE70020009043F64000C4F20200A8
:101B9000016841F080510160006800F080500090C1
:101BA0000098FFE701208DF80700FFE747F20000EB
:101BB000C4F200000068C005002822D4FFE747F205
:101BC0000001C4F20001086840F480700860FFF76B
:101BD00027FB0390FFE747F20000C4F20000006813
:101BE000C00500280CD4FFE7FFF71AFB0399401A41
:101BF000032804D3FFE703208DF8170073E1EAE719
:101C0000FFE7FFE704988068012809D1FFE743F662
:101C10007001C4F20201086840F0010008601FE092
:101C20000498806805280DD1FFE743F67001C4F2DF
:101C30000201086840F004000860086840F00100F4
:101C400008600CE043F67001C4F20201086820F05D
:101C500001000860086820F004000860FFE7FFE763
:101C6000FFE704988068F8B1FFE7FFF7D9FA03901F
:101C7000FFE743F67000C4F20200006800F00201C2
:101C80000020B0EB510F0ED1FFE7FFF7C9FA03991F
:101C9000401A41F28931884204D3FFE703208DF8CE
:101CA000170020E1E5E71EE0FFF7BAFA0390FFE72F
:101CB00043F67000C4F20200006800F00201002048
:101CC000B0EB510F0ED0FFE7FFF7AAFA0399401AC5
:101CD00041F28931884204D3FFE703208DF81700D1
:101CE00001E1E5E7FFE79DF80700012809D1FFE7DB
:101CF00043F64001C4F20201086820F080500860F9
:101D0000FFE7FFE704988069002800F0E880FFE71C
:101D100043F60800C4F20200006800F00C00082836
:101D200000F08880FFE70498806902285FD1FFE710
:101D30006021C4F2472100200860FFF771FA039088
:101D4000FFE743F60000C4F20200006800F00071F3
:101D50000020B0EB516F0CD0FFE7FFF761FA039959
:101D6000401A032804D3FFE703208DF81700BAE0D8
:101D7000E7E70499C869D1F820C04B6A8A6A40EA4B
:101D80000C0040EA8310D2034FF6FF739A43A2F58A
:101D900080321043CA6A40EA0260096B40EA01706F
:101DA00043F60401C4F2020108606021C4F2472135
:101DB00001200860FFF734FA0390FFE743F60000C4
:101DC000C4F20200006800F000710020B0EB516F17
:101DD0000CD1FFE7FFF724FA0399401A032804D334
:101DE000FFE703208DF817007DE0E7E721E06021A1
:101DF000C4F2472100200860FFF712FA0390FFE7C2
:101E000043F60000C4F20200006800F000710020F8
:101E1000B0EB516F0CD0FFE7FFF702FA0399401ABD
:101E2000032804D3FFE703208DF817005BE0E7E702
:101E3000FFE753E004988069012804D1FFE70120FF
:101E40008DF817004FE043F60400C4F2020000686A
:101E500002900498806901283AD0FFE7029800F4C4
:101E600080000499C969884232D1FFE7029800F0E6
:101E70003F000499096A88422AD1FFE7029847F691
:101E8000C07108400499496AB0EB811F20D1FFE777
:101E9000029800F440300499896AC9034FF6FF7232
:101EA0009143A1F58031884212D1FFE7029800F0FA
:101EB00070600499C96AB0EB016F09D1FFE702981D
:101EC00000F0E0400499096BB0EB017F04D0FFE71C
:101ED00001208DF8170006E0FFE7FFE7FFE700208D
:101EE0008DF81700FFE79DF8170006B080BD0000D1
:101EF00081B0009001B0704780B588B00790079816
:101F000000684068069007980068806805909DF812
:101F1000140000F040010020B0EB911F11D1FFE749
:101F20000598C00768B1FFE79DF8180000F0400170
:101F30000020B0EB911F04D0FFE70798016C8847A1
:101F4000F0E09DF8140000F002010020B0EB510F0A
:101F50000BD0FFE79DF818100020B0EBD11F04D084
:101F6000FFE70798416C8847DCE09DF8140000F01B
:101F700020010020B0EB511F10D1FFE79DF81400A5
:101F800000F040010020B0EB911F07D1FFE79DF862
:101F90001500C007002800F0C580FFE79DF8180075
:101FA00000F020010020B0EB511F00F0BB80FFE7E4
:101FB0009DF8140000F040010020B0EB911F28D0E4
:101FC000FFE7079890F85100032813D0FFE707991F
:101FD000486D40F004004865FFE700200490079832
:101FE0000068C068049007980068806804900498AE
:101FF000FFE70DE0FFE70020039007980068C06846
:10200000039007980068806803900398FFE789E0D1
:10201000FFE79DF8140000F020010020B0EB511FF5
:1020200015D0FFE70799486D40F001004865FFE7CC
:102030000020029007980068806802900798016865
:10204000086820F0400008600298FFE7FFE79DF86D
:102050001500C00778B1FFE70799486D40F0080008
:102060004865FFE7002001900798006880680190AC
:102070000198FFE7FFE70798406D002851D0FFE780
:1020800007980168486820F0E0004860079901203F
:1020900081F85100069800F00200022805D0FFE701
:1020A0009DF81800C007B8B3FFE7079801684868B3
:1020B00020F0030048600798C06CA0B1FFE70798C4
:1020C000C16C42F6ED20C0F6000008650798C06CB0
:1020D000FEF7CAFB30B1FFE70799486D40F04000BA
:1020E0004865FFE7FFE70798806CA0B1FFE7079816
:1020F000816C42F6ED20C0F6000008650798806C00
:10210000FEF7B2FB30B1FFE70799486D40F04000A1
:102110004865FFE7FFE703E00798FFF7E9FEFFE701
:10212000FFE7FFE708B080BD80B584B00290029859
:1021300020B9FFE701208DF80F0071E00298406A96
:1021400060B9FFE702984068B0F5827F01D1FFE7F0
:1021500003E002990020C861FFE705E00299002032
:10216000086102994861FFE702990020886202989D
:1021700090F8510040B9FFE70299002081F8500023
:10218000029800F051F8FFE70299022081F851000F
:1021900002980168086820F040000860029A0192E5
:1021A00011685068D2F808C0D36800F482700CF44B
:1021B000044C604403F400631844136903F0020301
:1021C0001844536903F001031844936903F400733E
:1021D0001844D36903F038031844136A03F08003EA
:1021E0001843926A02F4005210430860029A508B1E
:1021F00000F004001168526A02F0100210444860B6
:1022000002980168C86920F40060C8610299002042
:102210004865029A012182F851108DF80F00FFE7FE
:102220009DF80F0004B080BD80B58CB00B900020ED
:102230000A9009900890079006900B98006843F266
:102240000001C4F20101884267D1FFE7FFE70020E7
:10225000059043F64400C4F20200016841F4805145
:102260000160006800F4805005900598FFE7FFE7E3
:102270000020049043F63000C4F20200016841F0EF
:1022800001010160006800F0010004900498FFE77C
:10229000E020069002200790002002900890032082
:1022A000099005200A900020C4F2020006A9FEF75A
:1022B000D1FD029940F27400C2F20000039046F290
:1022C0005842C4F2020202604FF0C06242604022F3
:1022D0008260C1604FF48062026141618161C161CD
:1022E00001624162FEF77AFC18B1FFE7FEF7B8FA27
:1022F000FFE7FFE70B9840F27401C2F2000181642E
:102300000B988863FFE72320019000221146FFF716
:1023100025F80198FFF718F8FFE70CB080BD000022
:1023200080B588B006900591ADF812200393FEF7B2
:1023300077FF0290BDF81200ADF80600069890F8FD
:102340005100012804D0FFE702208DF81F0034E17E
:10235000059820B1FFE7BDF8120020B9FFE7012082
:102360008DF81F0029E1FFE7069890F8500001283A
:1023700004D1FFE702208DF81F001EE1069901201D
:1023800081F85000FFE7FFE70699032081F851002C
:102390000699002048650599069A1163BDF8121048
:1023A000069A9186BDF81210069AD186069988631E
:1023B000069988870699C88706994864069908642B
:1023C00006988068B0F5004F0DD1FFE706980168C8
:1023D000086820F04000086006980168086840F42A
:1023E00080400860FFE706980068006800F0400041
:1023F000402807D0FFE706980168086840F04000D1
:102400000860FFE70698C068B0F5006F51D1FFE79C
:102410000698406828B1FFE7BDF8060001280ED1F4
:10242000FFE706980168006B0088C8600699086B92
:10243000023008630699C88E0138C886FFE7FFE7B7
:102440000698C08EA0B3FFE70698006880688007F2
:1024500000280ED5FFE706980168006B0088C86069
:102460000699086B023008630699C88E0138C88641
:102470001DE0FEF7D5FE0299401A0399884204D365
:10248000FFE70398013018B9FFE7039870B9FFE739
:102490000699012081F85100FFE70699002081F894
:1024A0005000FFE703208DF81F0086E0FFE7C7E735
:1024B00050E00698406828B1FFE7BDF80600012803
:1024C0000ED1FFE706980168006B00780873069943
:1024D000086B013008630699C88E0138C886FFE78B
:1024E000FFE70698C08EA0B3FFE7069800688068F3
:1024F000800700280ED5FFE706980168006B00787A
:1025000008730699086B013008630699C88E013874
:10251000C8861DE0FEF784FE0299401A039988429E
:1025200004D3FFE70398013018B9FFE7039870B9A7
:10253000FFE70699012081F85100FFE70699002086
:1025400081F85000FFE703208DF81F0035E0FFE71A
:10255000C7E7FFE706980399029A00F051FB20B104
:10256000FFE7069920204865FFE70698806870B964
:10257000FFE7FFE70020009006980068C068009021
:1025800006980068806800900098FFE7FFE70699CA
:10259000012081F85100FFE70699002081F85000E2
:1025A000FFE70698406D20B1FFE701208DF81F007E
:1025B00003E000208DF81F00FFE79DF81F0008B022
:1025C00080BD000080B584B002900191ADF802207A
:1025D000029890F85100012804D0FFE702208DF8FE
:1025E0000F00A1E0019820B1FFE7BDF8020020B97B
:1025F000FFE701208DF80F0096E0FFE7029890F8C2
:102600005000012804D1FFE702208DF80F008BE075
:102610000299012081F85000FFE7FFE702990320AB
:1026200081F851000299002048650199029A1163CE
:10263000BDF80210029A9186BDF80210029AD18666
:10264000029988630299486402990864029988870C
:102650000299C88702988068B0F5004F0DD1FFE756
:1026600002980168086820F040000860029801683C
:10267000086840F480400860FFE70298816C42F6E9
:102680004130C0F6000008640298816C42F659306F
:10269000C0F60000C8630298816C42F60D30C0F6A7
:1026A0000000C8640298816C00200865029B1A68CB
:1026B000196B986C0C32DB8EFEF748FB78B1FFE7A4
:1026C0000299486D40F010004865FFE7029900202C
:1026D00081F85000FFE701208DF80F0024E00298F8
:1026E0000068006800F04000402807D0FFE702982B
:1026F0000168086840F040000860FFE7FFE70299C2
:10270000002081F85000FFE702980168486840F017
:102710002000486002980168486840F00200486064
:1027200000208DF80F00FFE79DF80F0004B080BD7A
:1027300081B0009001B0704781B0009001B0704747
:1027400080B582B00190019800F058FB02B080BDC6
:1027500080B582B00090009820B9FFE701208DF885
:10276000070040E00098806908B1FFE700E0FFE75C
:10277000009890F8410040B9FFE70099002081F8E7
:102780004000009800F034F8FFE70099242081F819
:10279000410000980168C86820F40050C8600098A3
:1027A00000F0C0FB00980168086920F490400861BF
:1027B00000980168486920F02A0048610098016883
:1027C000C86840F40050C860009900204864009A2E
:1027D000202182F84110009A82F842100099486343
:1027E0008DF80700FFE79DF8070002B080BD0000EC
:1027F00080B588B007900020069005900490039063
:1028000002900798006844F20041C4F20001884237
:1028100033D1FFE7FFE70020019043F64000C4F208
:102820000200016841F400310160006800F40030EA
:1028300001900198FFE7FFE70020009043F6300089
:10284000C4F20200016841F001010160006800F07B
:10285000010000900098FFE70C20029002200390F6
:102860000020049003200590072006900020C4F269
:10287000020002A9FEF7EEFAFFE708B080BD0000F3
:10288000FFE7FEE780B582B0FFE70020019043F646
:102890003000C4F20200016841F480010160006868
:1028A00000F4800001900198FFE73B200090002297
:1028B0001146FEF753FD0098FEF746FD02B080BDBD
:1028C00080B590B000200F900E900D900C900B9062
:1028D000FFE700200A9043F63000C4F202000168CE
:1028E00041F004010160006800F004000A900A98B9
:1028F000FFE7FFE70020099043F63000C4F2020032
:10290000016841F080010160006800F080000990DA
:102910000998FFE7FFE70020089043F63000C4F273
:102920000200016841F001010160006800F001004F
:1029300008900898FFE7FFE70020079043F6300073
:10294000C4F20200016841F002010160006800F079
:10295000020007900798FFE740F20040C4F202002F
:1029600001904FF48861009100220492FEF740FC30
:10297000049A40F60000C4F2020005908021029102
:10298000FEF736FC049905984FF400520B924FF471
:1029900004120C920D910BA90691FEF75BFA009BB5
:1029A0000198049A06990B93012303930C930D92BB
:1029B0000E92FEF74FFADDF808C0039B049A0598C3
:1029C0000699CDF82CC00C930D920E92FEF742FAA8
:1029D00010B080BD80B582B040F2D400C2F20000D9
:1029E000009043F20001C4F2010101604FF48271D2
:1029F0004160002101918160C160016141614FF43A
:102A000000728261C1610162416281620A21C16218
:102A1000FFF78AFB18B1FFE7FDF722FFFFE702B0DF
:102A200080BD000080B582B040F22C10C2F20000E0
:102A3000019044F20041C4F2000101604FF4E13121
:102A4000416000218160C16001610C2242618161AD
:102A5000C161FFF77DFE18B1FFE7FDF701FFFFE75A
:102A600002B080BDFFE7FEE7FFE7FEE788B0079012
:102A700006910592079800F0070004900498C0F1B1
:102A80000700052803D3FFE70420019004E0049821
:102A9000C0F107000190FFE701980390049804300B
:102AA000062803D8FFE70020009003E004980338CD
:102AB0000090FFE70098029006980399012202FA1D
:102AC00001F101390840029B984005999A40013A6A
:102AD0001140084308B070477047000080B540F2CD
:102AE000D400C2F20000FFF707FA80BD80B582B0C3
:102AF00001900198806B009000990020C887009990
:102B0000C8860098FFF7F4F902B080BD80B582B0A6
:102B100001900198806B009000980168486820F04F
:102B2000030048600099486D40F010004865009926
:102B3000012081F851000098FFF7DAF902B080BD5A
:102B400080B582B001900198806B00900098FFF7EB
:102B5000F3FD02B080BD000080B584B003900398FF
:102B6000806B0290FEF75CFB0190039800680068A0
:102B700000F48070B0F5807F3BD0FFE702980168D9
:102B8000486820F02000486002980168486820F0FA
:102B9000020048600298019A642100F031F830B1D7
:102BA000FFE70299486D40F020004865FFE7029872
:102BB000806870B9FFE7FFE7002000900298006886
:102BC000C068009002980068806800900098FFE755
:102BD000FFE702990020C8860299012081F8510080
:102BE0000298406D20B1FFE70298FFF781F904E0F9
:102BF000FFE70298FFF79CFDFFE704B080BD0000EF
:102C000080B586B00490039102920498039B0299C8
:102C10006A4611600221012200F058F848B1FFE72E
:102C20000499486D40F02000486503208DF8170096
:102C300048E040F20000C2F2000000684AF6AB2112
:102C4000CAF6AA21A0FB011000094DF68361C4F267
:102C50001B31A0FB0110800C4FF47A7148430190A6
:102C600004984068B0F5827F15D1FFE70498039B74
:102C700002996A4611608021002200F027F848B1CD
:102C8000FFE70499486D40F02000486503208DF867
:102C9000170017E012E0FFE7019808B9FFE70CE022
:102CA000019801380190FFE7049800688068C1B27C
:102CB0000020B0EBD11FEFD1FFE7FFE700208DF838
:102CC0001700FFE79DF8170006B080BD80B58AB0F9
:102CD000DDF830C0089007918DF81B20059305980A
:102CE0000190FEF79DFA024601980C99891A084452
:102CF0000390FEF795FA0290039840F20001C2F2A9
:102D000000010968C1F3CB3148430490FFE70898FC
:102D10000068806807990840401AB0FA80F04009BE
:102D20009DF81B1088425ED0FFE70598013000280F
:102D300058D0FFE7FEF774FA0299401A03998842C7
:102D400004D2FFE70398002842D1FFE70898016802
:102D5000486820F0E000486008984068B0F5827F3D
:102D600013D1FFE708988068B0F5004F06D0FFE761
:102D700008988068B0F5806F07D1FFE70898016870
:102D8000086820F040000860FFE70898806AB0F506
:102D9000005F0FD1FFE7FFE708980168086820F49B
:102DA0000050086008980168086840F40050086006
:102DB000FFE7FFE70899012081F85100FFE7089934
:102DC000002081F85000FFE703208DF827000EE077
:102DD000049818B9FFE700200390FFE70498013832
:102DE0000490FFE793E700208DF82700FFE79DF8A8
:102DF00027000AB080BD00007047000080B582B097
:102E0000009000980138B0F1807F03D3FFE70120E4
:102E1000019019E0009801384EF21401CEF2000141
:102E200008604FF0FF300F2100F03CF94EF218011E
:102E3000CEF20001002008604EF21002CEF2000235
:102E4000072111600190FFE7019802B080BD0000EA
:102E500080B5FEF7EBF980BD80B594B007A83421AA
:102E6000FDF7CBFA002006900590049003900290A5
:102E7000FFE70020019043F64000C4F20200016821
:102E800041F080510160006800F08050019001988D
:102E9000FFE7FFE70020009047F20000C4F20000C7
:102EA0000168012262F38F310160006800F4404044
:102EB00000900098FFE70220079001210A9110215D
:102EC0000B910D9000220E920F914FF4A87110916A
:102ED000042111911290139007A8FEF775FC18B108
:102EE000FFE7FDF7BDFCFFE70F20029002210391F1
:102EF000002004904FF480520592069002A8FEF73D
:102F00004FFA18B1FFE7FDF7ABFCFFE714B080BD47
:102F10004EF68851CEF20001086840F47000086057
:102F20007047000080B586B005900598006800697C
:102F300020F44050059A1168D26810430861059941
:102F400088680B694A69C9691843104308430490AB
:102F500005980068C06849F20C61884304990843E9
:102F600005990968C86005980068406920F44070B8
:102F7000059A11689269104348610598006841F20A
:102F80000001C4F20101884209D0FFE705980068FA
:102F900041F20041C4F20101884204D1FFE7FEF78B
:102FA00049FB039003E0FEF733FB0390FFE705982E
:102FB000C069B0F5004F29D1FFE703981921A0FBA4
:102FC0000101059A1368029353685A00DB0FFDF75D
:102FD0009CF90299864648F21F53C5F2EB13AEFBEB
:102FE0000320420910014FF0640C02FB1CEC32225A
:102FF00002EBCC02A2FB0332F82303EA521300EBEC
:103000004300C2F342121044886026E0039819215D
:10301000A0FB0101059A1368019353689A009B0F66
:10302000FDF773F90199844648F21F52C5F2EB127D
:10303000ACFB02304309642003FB10CC322000EBD0
:103040000C10A0FB0202F02000EA521000EB03106B
:10305000C2F3431210448860FFE706B080BD000051
:10306000FFE7FEE781B08DF803009DF9030000281B
:103070000ED4FFE79DF9031001F01F0201209040DC
:103080004A094EF20011CEF2000141F82200FFE79A
:1030900001B070474EF60C50CEF200000068C0F34D
:1030A0000220704782B08DF8070000919DF907005B
:1030B00000280AD4FFE7009800019DF907104EF29E
:1030C0000042CEF2000288540BE0009800019DF807
:1030D000071001F00F014EF61452CEF20002885490
:1030E000FFE702B07047000083B00290029800F042
:1030F000070000904EF60C51CEF2000108680190D6
:1031000001984FF6FF02104001900198009A40EAA2
:1031100002200022C0F2FA52104301900198086088
:1031200003B0704780B584B00390029100200190F5
:10313000FFE701980299884219DAFFE7039801999D
:1031400001EB410100EB8100B0F90800012809DB27
:10315000FFE70398019901EB410100EB810000F0CA
:103160000BF8FFE7FFE7019801300190E1E704B0B9
:1031700080BD00000000000080B594B0139013984B
:10318000006812901398406811901398B0F90800E5
:1031900010901398408920F0200141F28500C0F67C
:1031A0004200A1FB0020091A00EB510000090F901A
:1031B00000200E9010990D910C900B901398B0F97F
:1031C0000A000A90FFE70E980D99884200F3D78015
:1031D000FFE70C9809900D980890FFE70E980D995D
:1031E000884200F3AF80FFE70C9801F0E0F941EC72
:1031F000100B01F015F89FED641B53EC112B51ECF3
:10320000100B01F0EBF941EC100B8DED020B109857
:1032100001F0CDF99DED021B41EC100B51EC110BAF
:1032200053EC102B01F03AF841EC100B51EC100B61
:1032300001F08EF90B900B98062879DBFFE70F98C9
:103240000B9948430A9012980E99084407901298D7
:103250000E99401A069011980D99084405901198FE
:103260000D99401A049040F27000C2F200000190E3
:103270000068BDF82810BDF91C20BDF9143000F01D
:1032800033F901980068BDF82810BDF91C20BDF97C
:10329000103000F029F901980068BDF82810BDF938
:1032A0001820BDF9143000F01FF901980068BDF82E
:1032B0002810BDF91820BDF9103000F015F901985B
:1032C00012990D9A1144079112990D9A891A069133
:1032D00011990E9A1144059111990E9A891A049127
:1032E0000068BDF82810BDF91C20BDF9143000F0AD
:1032F000FBF801980068BDF82810BDF91C20BDF945
:10330000103000F0F1F801980068BDF82810BDF900
:103310001820BDF9143000F0E7F801980068BDF8F6
:103320002810BDF91820BDF9103000F0DDF8FFE7D6
:103330000D9800440C99084401380C900D98013800
:103340000D904BE709980C9008980D900E9801305D
:103350000E900E9801180C98401A01300C900C98A1
:10336000B0F1FF3F0ADCFFE70D9801380D900D9892
:1033700000440C99084401300C90FFE723E714B097
:1033800080BD00BF00BF00BF0000000000003F4044
:1033900086B0DDF818C0049003910292019303985F
:1033A00018B1FFE7029820B9FFE700208DF8170059
:1033B00096E00398B0F900000499898B884208DAF6
:1033C000FFE70298B0F900000499C98B884204DB3A
:1033D000FFE700208DF8170082E0019880B1FFE739
:1033E000069868B1FFE70198008820B1FFE70698CA
:1033F000008820B9FFE700208DF8170070E0FFE794
:103400000398B0F90000B0F1FF3F0EDCFFE7019830
:1034100038B1FFE70398028801990888801A08806C
:10342000FFE7039900200880FFE70298B0F9000049
:10343000B0F1FF3F0EDCFFE7069838B1FFE70298D6
:10344000028806990888801A0880FFE70299002000
:103450000880FFE7019800283ED0FFE70698D8B320
:10346000FFE70398B0F90000019909880844013882
:103470000499898B884208DBFFE70498808B0399C5
:103480000988401A01990880FFE70298B0F9000006
:1034900006990988084401380499C98B884208DBD9
:1034A000FFE70498C08B02990988401A06990880A2
:1034B000FFE7019801880020009039B1FFE70698E6
:1034C0000088002818BF01200090FFE7009800F056
:1034D00001008DF8170003E001208DF81700FFE7C9
:1034E0009DF8170006B0704780B584B00390ADF822
:1034F0000A10ADF80820ADF806300398694600239D
:103500000B6002A90DF10602FFF742FF08B9FFE7C1
:103510002CE09DF80A109DF80B0040EA0120ADF860
:1035200004000398BDF80810BDF806204B1C02F1FA
:10353000010C1FFA8CFCEE46CEF800C09BB200F0E6
:10354000ADFC039800F09EFC03994869098B0122A9
:10355000FDF74EFE0398006801A902224FF0FF33E9
:10356000FEF7DEFE039800F081FCFFE704B080BDAB
:1035700010B58AB08C4686460D980C99CDF824E09B
:10358000ADF822C0ADF82020ADF81E30ADF81C100B
:10359000ADF81A0009986A460DF11A01116008A9E0
:1035A0000DF11E0207ABFFF7F3FE08B9FFE776E067
:1035B000BDF81C00BDF81A1048430590059804900A
:1035C000049803900398B0F5806F04D9FFE74FF497
:1035D00080600390FFE79DF822109DF8230040EAE9
:1035E0000120ADF80A000020ADF80800FFE7BDF8A3
:1035F00008000399884211D2FFE7BDF80A00BDF820
:10360000082040F29811C2F2000121F81200FFE7F1
:10361000BDF808000130ADF80800E8E70998BDF8EA
:103620002010BDF81E20BDF81C300B44013BBDF836
:103630001AC09444ACF1010C1FFA8CFCEE46CEF893
:1036400000C09BB200F02AFC099800F01BFC09990D
:103650004869098B0122FDF7CBFDFFE70498D0B143
:10366000FFE70498019001980399884203D9FFE786
:1036700003980190FFE709980199490089B240F247
:103680009812C2F20002012300F020FD0199049873
:10369000401A0490E2E7099800F0E8FBFFE70AB05F
:1036A00010BD000080B584B00390ADF80A100398F7
:1036B000BDF80A10828BB0F81EC06B46C3F804C078
:1036C0001A6000231A46FFF753FF04B080BD0000C4
:1036D0002DE9F0479EB01D901D9800F023FB1D982A
:1036E00000F0D0FB1D984FF0FF31099101220B92A1
:1036F00000F03EFC4FF47A70FDF78AFB09991D98A3
:1037000039228DF86F202C228DF870204FF0000A9E
:103710008DF871A034228DF87220022202928DF869
:1037200073206B460DF16F021A60CB22052300F067
:1037300057FC09991D988DF86CA0C1268DF86D6015
:1037400030228DF86E206B461BAA1A60CF224FF0F4
:103750000308434600F044FC09991D9885228DF822
:1037600069208DF86AA0782208928DF86B206B464C
:103770000DF169021A60E822434600F031FC029B19
:1037800009991D988DF867A08DF868A0EC460DF199
:103790006702CCF80020EA2200F022FC09991D986B
:1037A00064228DF863208DF8648012228DF86520E4
:1037B00081228DF866206B460DF163021A60ED22BE
:1037C000042300F00DFC09990B9B1D9820228DF815
:1037D0006220EC460DF16202CCF80020F72200F0E6
:1037E000FFFB09990B9B1D9823228DF86120EC4665
:1037F0000DF16102CCF80020C02200F0F1FB099924
:103800000B9B1D98102203928DF86020EC4618AA9D
:10381000CCF80020324600F0E3FB029B09991D988A
:103820003E228DF85E2028228DF85F20EC460DF1B7
:103830005E02CCF80020C52200F0D2FB09990B9B58
:103840001D9886228DF85D20EC460DF15D02CCF8C6
:103850000020C72200F0C4FB09990B9B1D98482546
:103860008DF85C50EC4617AACCF8002036220A925C
:1038700000F0B6FB09990B9B1D9855228DF85B2033
:10388000EC460DF15B02CCF800203A2200F0A8FBD8
:10389000029B09991D988DF859A018228DF85A207D
:1038A000EC460DF15902CCF80020B12200F098FB53
:1038B00009991D9808248DF8564082228DF85720CA
:1038C00027228DF858206B460DF156021A60B62259
:1038D000434600F085FB09990B9B1D988DF855A078
:1038E000EC460DF15502CCF80020F22200F078FBF6
:1038F00009990B9B1D988DF85430EC4615AACCF80D
:103900000020262200F06CFB039A09991D980F23D2
:1039100005938DF845304FF0310CCDF810C08DF87F
:1039200046C04FF02B0C8DF847C04FF00C0CCDF873
:1039300018C08DF848C04FF00E098DF849908DF8E9
:103940004A404FF04E0C8DF84BC04FF0F10C8DF803
:103950004CC04FF0370C8DF84DC007278DF84E70D6
:103960008DF84F208DF850808DF8519009228DF8F8
:1039700052208DF853A0EC460DF14502CCF8002002
:10398000E02200F02DFBDDF810C0059B09990A9A92
:10399000DDF818E01D988DF836A08DF837904FF0BF
:1039A00014098DF838908DF839804FF01108CDF852
:1039B0001C808DF83A808DF83B708DF83CC08DF8F6
:1039C0003D608DF83E508DF83F408DF840308DF8C9
:1039D00041E08DF842C08DF843208DF84430EC462C
:1039E0000DF13602CCF80020E12200F0F9FA079A36
:1039F00009991D9800F0BCFA0898FDF709FA099991
:103A00001D98292200F0B4FA1D980C9090F91A0024
:103A100000F0A2F909990A9A0B9B84460C988DF83C
:103A200035C0EE460DF1350CCEF800C000F0D8FAE6
:103A30001D9800F01BFA1EB0BDE8F0872DE9F04399
:103A4000A1B01D4616460F468046319830992F9AF0
:103A50002E9B2D9BDDF8B0C0DDF8ACC0DDF8A8E0F2
:103A6000299C289CCDF880801F97ADF87A601D9521
:103A7000ADF87240ADF870E08DF86FC0ADF86C3005
:103A8000ADF86A208DF869108DF868000020199053
:103A90002098002800F04181FFE71F98002800F0DF
:103AA0003B81FFE7BDF87A00002800F03581FFE791
:103AB0000020002840F03081FFE71D98002800F02A
:103AC0002B81FFE7BDF87200002800F02581FFE799
:103AD0000020002840F02081FFE72998002800F00E
:103AE0001B81FFE7BDF87000002800F01581FFE79B
:103AF0000020002840F01081FFE79DF96F000028AA
:103B000000F10A81FFE79DF96F00032800F30481AB
:103B1000FFE79DF96900012820D1FFE72C980028D4
:103B200000F0F980FFE7BDF86C00002800F0F3809A
:103B3000FFE70020002840F0EE80FFE72E980028E5
:103B400000F0E980FFE7BDF86A00002800F0E3809C
:103B5000FFE70020002840F0DE80FFE76820FCF748
:103B6000A5FB1990002800F0D580FFE7209819994F
:103B700008601F9819994860BDF87A001999088162
:103B80001D981999C860BDF8720019990882299882
:103B900019994861BDF87000199908839DF86F0064
:103BA00019998876199803909DF96F0000F0F8F83C
:103BB000039918901898C8619DF86900002856D09C
:103BC000FFE72C9819990862BDF86C001999888450
:103BD0002E9819998862BDF86A00199988859DF810
:103BE0006900199981F82E009DF86800199981F8EB
:103BF0002F00199A00200290ADF85C00ADF85E002D
:103C000017991163199AFF2182F83410199AADF8A7
:103C10005400ADF85600ADF85800ADF85A001599AB
:103C2000169BC2F83A30C2F83610199A14901390C5
:103C30001290119010900F900E900E990F9BDDF83E
:103C400040C0DDF844E0129C139D55651465C2F830
:103C50004CE0C2F848C053641164149991651999F5
:103C600081F85C0019990866199948664EE019991F
:103C7000002001900862199988841999886219991D
:103C800088859DF86910199A82F82E10199AFF21DB
:103C900082F82F10199BADF83400ADF836000D9A5C
:103CA0001A63199A82F83410199BADF82C00ADF8FC
:103CB0002E00ADF83000ADF832000B9ADDF830C0C0
:103CC000C3F83AC0C3F83620199B0A9009900890AF
:103CD0000790069005900490049ADDF814C0DDF872
:103CE00018E0079C089D099E5E651D65DC64C3F8AD
:103CF00048E0C3F844C01A640A9A9A65199A82F88F
:103D00005C101999086619994866FFE71998FFF73A
:103D1000DFFCFFE7FFE7FFE7FFE7199821B0BDE809
:103D2000F083000080B582B001900199486809894C
:103D30000022FDF75DFAC820FDF76AF8019948688E
:103D400009890122FDF754FA019800F08FF80198D3
:103D500000F0F6F802B080BD82B08DF806009DF943
:103D6000060001460091032804D80099DFE801F01D
:103D700003070B0FFFE748208DF807000BE0E82052
:103D80008DF8070007E088208DF8070003E0282061
:103D90008DF80700FFE79DF8070002B070470000AC
:103DA00083B08DF807009DF90700014600910328B4
:103DB00004D80099DFE801F0030B131BFFE7F020A4
:103DC000ADF808004FF4A070ADF80A0017E04FF40A
:103DD000A070ADF80800F020ADF80A000FE0F02068
:103DE000ADF808004FF4A070ADF80A0007E04FF4FA
:103DF000A070ADF80800F020ADF80A00FFE70298C7
:103E000003B0704780B584B003908DF80B109DF916
:103E10000B000146019120B1FFE70198012804D071
:103E200007E0039800F022F804E0039800F088F817
:103E300000E0FFE704B080BD80B584B003908DF84A
:103E40000B109DF90B000146019120B1FFE701988D
:103E5000012804D007E0039800F014F804E0039868
:103E600000F07AF800E0FFE704B080BD80B582B0D2
:103E700001900199C868098A0122FDF7B9F902B0D9
:103E800080BD000080B582B001900199C868098AA0
:103E90000022FDF7ADF902B080BD000080B588B00A
:103EA00084460A98CDF81CC0ADF81A10ADF8182059
:103EB000ADF81630ADF814000798FFF7E3FF079848
:103EC0009DF81B108DF81010BDF81A108DF8111008
:103ED0009DF817108DF81210BDF816108DF81310FC
:103EE0006A4604A911604FF0FF3102912A2204238F
:103EF000019300F075F8019B029907989DF819202D
:103F00008DF80C20BDF818208DF80D209DF8152097
:103F10008DF80E20BDF814208DF80F20EC4603AA72
:103F2000CCF800202B2200F05BF8029907982C2295
:103F300000F01EF80798FFF799FF08B080BD000059
:103F400080B582B001900199086A898C0122FDF741
:103F50004FF902B080BD000080B582B00190019998
:103F6000086A898C0022FDF743F902B080BD000089
:103F700080B582B001908DF803108DF802209DF974
:103F8000030000280BD4FFE79DF90300012806DC9D
:103F9000FFE701989DF90310FFF74EFFFFE7019936
:103FA0004869098B0022FDF723F9019800680DF19B
:103FB000020101224FF0FF33FEF7B2F99DF9030031
:103FC00000280BD4FFE79DF90300012806DCFFE77A
:103FD00001989DF90310FFF715FFFFE702B080BDC0
:103FE00080B584B0DDF818C003908DF80B108DF803
:103FF0000A20ADF808309DF90B0000280BD4FFE72C
:104000009DF90B00012806DCFFE703989DF90B10D2
:10401000FFF712FFFFE703989DF80A204FF0FF31EA
:104020000191FFF7A5FF01990398BDF80820069BB1
:1040300000F012F89DF90B0000280BD4FFE79DF962
:104040000B00012806DCFFE703989DF90B10FFF732
:10405000D9FEFFE704B080BD80B584B003908DF831
:104060000B10ADF8082001939DF90B0000280BD42C
:10407000FFE79DF90B00012806DCFFE703989DF997
:104080000B10FFF7D9FEFFE703994869098B01225E
:10409000FDF7AEF8039800680199BDF808204FF0CD
:1040A000FF33FEF73DF99DF90B0000280BD4FFE725
:1040B0009DF90B00012806DCFFE703989DF90B1022
:1040C000FFF7A0FEFFE704B080BD000080B584B01C
:1040D0000390ADF80A1001928DF80330039838B1BF
:1040E000FFE7BDF80A0018B1FFE7019808B9FFE73C
:1040F0000EE0039800680199BDF80A20FEF762FA05
:104100009DF8030020B1FFE7039800F003F8FFE7F4
:1041100004B080BD80B582B00190019808B9FFE776
:1041200009E0FFE701980068806CFCF7BFFB0228FC
:1041300001D1FFE7F6E702B080BD000080B592B084
:1041400000200C901190FDF77FF8FEF785FEFEF73A
:10415000B7FBFEF797FBFEF765FCFEF73BFC0C9AFE
:1041600069460B91012048620A62CA618A614A610C
:104170000A61C8608020886040F60000C4F2020036
:1041800048604020086040F2D400C2F200004FF4C2
:10419000806240F20043C4F202031946FFF74EFC6E
:1041A000014640F27000C2F200000160006844F66F
:1041B000AA11C0F600010988FFF774FA78200E9062
:1041C000A0200F902820ADF8400044F6AC10C0F6B7
:1041D00000000088ADF842000EA8FEF7CDFF0C9855
:1041E0000D90FFE70D98022811DCFFE70D9800EB1A
:1041F000400140F27410C2F2000000EB81014FF662
:10420000FF700881FFE70D9801300D90EAE740F25A
:104210007410C2F200000321FEF784FFFFE7FEE7FF
:1042200000B52DED048BB0EE409AF0EE609A83B0AD
:1042300051EC190B00F0D0FA41EC180B18EE100AF3
:1042400018EE901A8DED008B002818BF012008434E
:1042500020F00040C0F17F6000F1E040C00F14D0BA
:1042600019EE101A19EE900A8DED009B002918BF67
:104270000121084320F00040C0F17F6000F1E040E0
:10428000C00F04BF0120FCF761F9B0EE480A03B08B
:10429000F0EE680ABDEC048B00BD00002DE9C041C2
:1042A00030B4DFF8A4C23CEA111418BF3CEA13147E
:1042B00000F0ED801CEA111481EA030544EAD5748C
:1042C00018BF1CEA131500F0C880A4EB050404F124
:1042D0007F7404F500344FF0004545EAC12145EAFA
:1042E000C32341EA505143EA52534FEAC0204FEAF8
:1042F000C222994208BF904200F09D804FEA1365A8
:104300000FF24416765D4FEA134506FB05F7C7F139
:10431000807706FB07F74FEAD737A7FB036876429B
:10432000A7FB06CEC8F5803838BFA8F1010807FB07
:1043300008E6A6FB028C4FF0000EE6FB03CEDCF194
:10434000000CCEF1004E38BFAEF1010EA6FB0C58AA
:104350004FF00007E6FB0E87A1FB08C6A0FB07CEC7
:1043600016EB0E064FF0000545F10005E1FB076571
:1043700015F1E04E7EBFA4F580345FEA46066D413C
:1043800016F1800745F100054FEA172747EA056750
:104390004FEA15254FEA0666A6F1DE46B6F1805FC4
:1043A00020D9384605EBC47124F0010C01EB0C1147
:1043B000BCF1FE6F02D8F0BCBDE8008124425CBFB6
:1043C00001F5801E9EEAC47F02D4F0BCBDE80081E6
:1043D000244200F13980A1F1C041F0BCBDE80041A8
:1043E00000F0F4B94FEAD02040EA41504FEAD12121
:1043F0004FEAD22242EA43524FEAD323A7FB028676
:1044000007FB036605FB02661EEA0E0F58BFA6EB0C
:104410000056B6EB00564FEA520E4EEAC37E18EB3A
:104420000E0E56EB530EBCD518EB02085E417F1CF6
:1044300055F10005B5E74FF480154FF000074FF038
:1044400000064FF00008ACE701F1C04101F0004167
:104450004FF00000F0BCBDE800810CEA131511EA32
:104460000C1F00D00CE013EA0C1F00F026804FF068
:10447000000081EA030101F00041F0BCBDE80081C9
:10448000F0BCBDE8004181EA030100F09FB9F0BC37
:10449000BDE8004170B500F04BF900BF097EFC3E5D
:1044A00000F007B84FF0000081EA030101F000417D
:1044B000704781EA030100F089B9F0BCBDE8004112
:1044C00022494FF000007047FFFDFBF9F7F5F4F2C9
:1044D000F0EEEDEBE9E8E6E4E3E1E0DEDDDBDAD89F
:1044E000D7D5D4D3D1D0CFCDCCCBCAC8C7C6C5C4FD
:1044F000C2C1C0BFBEBDBCBBBAB9B8B7B6B5B4B314
:10450000B2B1B0AFAEADACABAAA9A8A8A7A6A5A4FE
:10451000A3A3A2A1A09F9F9E9D9C9C9B9A999998C2
:104520009797969595949393929191908F8F8E8E65
:104530008D8C8C8B8B8A89898888878786858584F2
:1045400084838382828181800000FF070000F87FDE
:104550004FEA41034FEA5353A3F58063D3F11E039F
:10456000C8BFD3F1210C0CDD4FF0004242EAC1225A
:1045700042EA505232FA03FC8CEAE17CACEBE17087
:104580007047102BC4BF0020704703F5787CBCF146
:10459000FF3F04D06FF0004282EA2100704770B5FF
:1045A00000F0C6F84992248000207047F2E710F02E
:1045B000004248BF4042B0FA80F310FA03F10AD03B
:1045C000C3F11D0303F5806302EB03524FEA415030
:1045D00002EBD12170474FF00000704770B5DFF853
:1045E00048C11CEA111E1EBF1CEA13159EEA0C0FDF
:1045F00095EA0C0F00F06F8081EA03044EEAD47E46
:10460000AE4421EA4C1123EA4C1341F4801143F4E7
:104610008013AEF17F7EA1FB024CA0FB036536192F
:1046200055EB0C05A1FB034C4CF10003A0FB021C55
:1046300016EB0C06654153F10003094218BF46F022
:10464000010613F4007F0BD14FEA03314FEA053026
:1046500041EA155140EA165034036FF003020AE0B4
:104660004FEAC3214FEAC52041EA555140EA56506E
:10467000F4026FF0020202EB2E4201EB025585EAD2
:10468000CE710AD05FEA440C18BF24F0004450F108
:10469000000041F1000120EAD47040F2FE7C624546
:1046A00000D270BDA84214BF4FF080444FF0404488
:1046B000002E08BF0024BEF1806FA8BFA1F1C04149
:1046C000BDE8704080F2828001F1C04101F00041FC
:1046D0004FF0000070470CEA13159EEA0C0F18BF4C
:1046E00095EA0C0F06D081EA030E4FF000000EF0A1
:1046F000004170BD00F01CF88900013E00F007B8D1
:1047000000F009B84FEA430C5FEA5C5C08D081EA2C
:10471000030100F05BB84FEA410C5FEA5C5CF6D144
:1047200002494FF0000070470000FF070000F87FCB
:104730000EF1020E2EF0030E5EF8046B364205D425
:10474000012A43EB030515F5001F12D8012841EBA0
:10475000010C1CF5001F0CD80ED14FEAD17C0CEBDC
:104760004C0C0CF1020C15F5001F08BF4CEBD37C70
:1047700004E04FF0080C01E04FEAD37C0CEB4C0551
:1047800026FA05F606F00706B6F1040C06D20EEB83
:10479000860CBDE870404CF0010C6047DFE80CF07F
:1047A000090B02024FF00041A1F500214FF000007B
:1047B00070BD19461046012851EB010418BFD4F50D
:1047C000001484BF002001F0004170BD0808A0F56E
:1047D00000114FEA310170472DE9F04101F5801CCD
:1047E000BCF5001FC0F2A9804FEA115C21EA0C5110
:1047F00041F480110CF1FD0C5FEA5C0C0CF5C07CFF
:1048000001D340004941890241EA905187022EA418
:104810008E0EA45D0A0C04FB04F602FB06F6C6F13C
:104820004046A4FB0662F60D46EA422606FB06F465
:10483000A4FB01235242C3F1404338BF5B1EA6FBD9
:1048400002420024E6FB0324D20B42EA4446A6FBC4
:104850000623A1FB02E2A3FB07E4E3FB61426442FF
:10486000C2F1404E38BFAEF1010EA6FB04234FF05B
:104870000002E6FB0E32A2FB03463400E2FB626458
:10488000A1FB06E6A4FB07E8E4FB61687642C8F1F9
:10489000405838BFA8F10108A2FB06E4A3FB08E5D5
:1048A000E2FB6854A1FB05E6A7FB04E8E1FB648694
:1048B00018F1200556F10006A80940EA8660B10902
:1048C000A8F11B0808F03F08B8F10A0F1CD901EB4A
:1048D0000C51BDE8F08100BFFCF5EEE8E2DDD8D375
:1048E000CFCBC7C3C0BDB9B6B4B1AEACA9A7A5A361
:1048F000A19F9D9B9A9896959392908F8D8C8B8972
:104900008887868584838281A0FB006800FB01F292
:1049100008EB4208B8EB872807D5341858EB010498
:10492000D5D5401C51F10001D1E7341A78EB0104D0
:10493000CDD4401E71F10001C9E75FEA4C0C5FEA7B
:104940009C5C0DD105D301F000414FF00000BDE8A3
:10495000F081BDE8F04170B5FFF7EAFE6DDBFFBE08
:10496000BDE8F04101494FF0000070470000F87FBA
:10497000F1EE100A4FF6FF71C0F2C03120EA0100DB
:1049800040F04070E1EE100A7047000000000000A7
:1049900000000102030406070809000000000102EC
:1049A000030400061016000610160000E0070000C1
:1049B000D04900080000002010000000000200089C
:1049C000E049000810000020900F00001C020008C1
:1049D0000024F400010000001000000000000000AE
:04000005080001C529
:00000001FF
