:020000040800F2
:10000000D80F0020D901000841250008A9220008C6
:100010003D250008E9020008D12A00080000000080
:10002000000000000000000000000000BD270008E4
:10003000F90200080000000045250008C12700085B
:10004000F3010008F3010008F3010008F3010008C0
:10005000F3010008F3010008F3010008F3010008B0
:10006000F3010008F3010008F3010008F3010008A0
:10007000F3010008F3010008F3010008F301000890
:10008000F3010008F3010008F3010008F301000880
:10009000F3010008F3010008F3010008F301000870
:1000A000F3010008F3010008F3010008F301000860
:1000B00089280008F3010008F3010008F301000893
:1000C000F3010008F3010008F301000849250008C6
:1000D000F3010008F3010008F3010008F301000830
:1000E000F3010008F3010008F3010008F301000820
:1000F000F3010008F3010008F3010008F301000810
:10010000F3010008F3010008F3010008F3010008FF
:10011000F3010008F3010008F3010008F3010008EF
:10012000F3010008F3010008F3010008ED020008E4
:10013000F30100080000000000000000F3010008C7
:10014000F3010008F3010008F3010008F3010008BF
:10015000F3010008F3010008F3010008F3010008AF
:10016000F3010008F3010008F3010008F30100089F
:10017000F3010008F3010008F3010008000000008B
:1001800000000000F3010008000000000000000073
:10019000F30100080000000000000000F301000867
:1001A000000000000000000000000000F301000853
:1001B000F3010008F3010008F3010008F30100084F
:1001C000F3010008DFF80CD000F07CF8004800478D
:1001D000B93A0008D80F0020064880470648004773
:1001E000FEE7FEE7FEE7FEE7FEE7FEE7FEE7FEE7E7
:1001F000FEE7FEE775280008C50100082DE9F05F5D
:100200000546002092469B46884606468146402485
:100210001BE0284641464746224600F042F8534636
:100220005A46C01A914110D311461846224600F092
:1002300029F82D1A67EB01084F46224601200021BC
:1002400000F020F817EB00094E41201EA4F1010434
:10025000DFDC484631462A464346BDE8F09F0000B1
:100260000649074A0868504343F2390210440860BF
:1002700040087047014908607047000000000020F6
:100280006D4EC641202A04DB203A00FA02F100201C
:1002900070479140C2F1200320FA03F319439040C4
:1002A0007047202A04DB203A21FA02F0002170472F
:1002B00021FA02F3D040C2F12002914008431946CE
:1002C00070470000064C074D06E0E06840F001036F
:1002D00094E8070098471034AC42F6D3FFF776FF56
:1002E000D84A0008F84A0008FEE7000040F28800FB
:1002F000C2F2000000F0E6BA7047000072B600BF1C
:10030000FEE7000070B581B00022009290F83C201A
:10031000012A03D10221084601B070BD0E680122F6
:100320000A2E80F83C2009D3B2B25200D0F800E087
:1003300012FA86F21E3A0EF10C0305E0D0F800E046
:1003400006EB46020EF110034FF0070C1D680CFA85
:1003500002F4A5431D608D681C6805FA02F2224371
:100360001A60496806290FD801EB81014A1F7146BE
:100370001F2351F8345F934025EA03030B60B3B2A7
:1003800003FA02F214E000BF01EB81030C29B2B2C0
:1003900004D8714651F8304F233B03E0714651F8C1
:1003A0002C4F413B1F259D4024EA05059A400D60D6
:1003B0000B6842F2043CC4F2010C1A43ACF54173E1
:1003C0009E450A6006D0002180F83C10084601B026
:1003D00070BD00BF1221112EC1F2000118BF8E4264
:1003E0003AD1DCF800208E4222F48002CCF80020C2
:1003F000DCF8002042F40002CCF80020E3D140F207
:100400001C01C2F2000109684DF68362C4F21B327E
:10041000A1FB0212910C01EB8101490000910099AE
:100420000029D0D000990139009100990029CAD043
:1004300000990139009100990029C4D0009901392F
:10044000009100990029BED00099013900910099CE
:100450000029E7D1B7E700BF122EB4D1DCF80010B5
:1004600021F40001CCF80010DCF8001041F4800108
:10047000CCF80010A7E700000068C06C70470000CF
:10048000002804BF0120704710B50446006C002806
:100490003ED0206CC00645D4206C41F20211884346
:1004A000023042F204312064C4F20101086820F4F1
:1004B000403008600A6894E809101A43D4F810E044
:1004C0000A604168012321F4807141604168C0F6EF
:1004D000007341EA0E214160416821F040714160A2
:1004E000416841EA0C014160816821F4006181604A
:1004F000E168826811438160A16A8268994222F0B2
:1005000070628260826813D122F0405119E000BF0E
:10051000204600F065F80020606484F83C00206C00
:10052000C006B9D50120002184F83C1010BD00BFE1
:1005300011438160816821F040518160E16A8268E5
:1005400011438160816821F0020181608168227E0F
:1005500094F8203041EA42018160416883B141F45E
:100560000061416041684EF2000221F46041416047
:10057000616ACFF6FF72436802EB4131194301E033
:1005800021F400614160C16A40F2000C21F4700165
:10059000C162E2696169CFF6F07CC36A0CEB02527A
:1005A0001A43C262826822F40072826094F830209A
:1005B000836843EA42228260826822F48062826019
:1005C000826842EA8121816000206064216C0122FE
:1005D00062F301012164002184F83C1010BD000089
:1005E00080B586B042F200010068C4F20101002229
:1005F00088420592049201D006B080BD43F63000D7
:100600000092C4F20200436943F48073436143697A
:1006100003F480730093009B0092036843F002038D
:100620000360006800F00200009000980220019032
:100630000320CDE9020201F5644001A900F038FB76
:1006400006B080BD70B5044600680D46826852054C
:1006500044BF80685FEAC05038D400F003FC2168D2
:100660000A68920749D40646681C3CD0DDB9086880
:10067000800721D5086880073FD4086880071BD50C
:100680000868800739D40868800715D5086880078E
:1006900033D4086880070FD508688007E7D52CE0B9
:1006A0000868800729D400F0DDFB801B2168A84280
:1006B000F6D908688007F3D4206C40F00400206469
:1006C000002084F83C00032070BD00BF206C40F087
:1006D00020002064002084F83C00012070BD00BF91
:1006E0000868800709D40868800706D4086880076E
:1006F0005CBF08685FEA8070F2D56FF01200086096
:10070000206C40F400702064886810F0405F01D1D4
:10071000207E08B1002070BDC86A10F4700F02D0AE
:1007200088684005F6D4206C20F480702064206C2A
:10073000C004EFD4206C40F001002064002070BDA4
:1007400010B581B00021009190F83C10012903D12F
:10075000022001B010BD00BF0468012180F83C10E8
:10076000214651F8083FDB0729D10B684DF683621B
:1007700043F001030B6040F21C03C2F200031B684C
:10078000C4F21B32A3FB02239A0C02EB420200923A
:10079000009AA2B1009A013A0092009A7AB1009AA6
:1007A000013A0092009A52B1009A013A0092009ADE
:1007B0002AB1009A013A0092009A002AEAD10A6806
:1007C000036CD2070AD143F01001016400F1440127
:1007D00001200A681043086056E000BF40F2017231
:1007E00023EA020202F5807202646268520504D5AF
:1007F000026C012363F30D320264026C4FF0000EB1
:100800000023D20444BF426C22F0060342F2043CAF
:10081000436480F83CE06FF02200C4F2010C2060D9
:10082000DCF80000C0060DD0ACF5417084422BD13D
:100830004FF60450CFF6FF705CF8000010F0405FF8
:1008400022D125E042F20000C4F20100844217D018
:1008500042F20020C4F2010084420DD042F20010A6
:10086000C4F2010084420FD1DCF80000C00607D0BA
:10087000ACF58270844207D1DCF80000C00603D4D6
:10088000086810F0405F03D0002001B010BD00BF29
:100890004FF080409DE7000090F83510022909D103
:1008A000052180F835100068016821F00101016020
:1008B00000207047802141650120704790F8350085
:1008C00070470000F0B581B004460020009040F26F
:1008D0001C00C2F200000268D4E9166048F2B513A9
:1008E00037680821C1F64E3381403942A2FB032507
:1008F0000CD0226813685B0708D5136823F0040343
:100900001360B160616D41F00101616501218140B9
:10091000394208D022685269120604D5B160616D6F
:1009200041F00201616504218140394208D022680A
:100930001268920704D5B160616D41F004016165F0
:1009400010218140394217D020680268120713D560
:10095000B16002680168520308D4C90508D401686F
:1009600021F008010160216C21B905E008033FD4A2
:10097000216C09B120468847E16D202000FA01F280
:100980003A4241D020680368DB063DD5B26094F856
:1009900035300268052B1BD122F016020260426935
:1009A00022F080024261226C0AB9A26C1AB102687C
:1009B00022F0080202603F208840B060012084F8E5
:1009C0003500216D0020002984F8340052D157E011
:1009D0000168520310D4C90512D4016821F0100136
:1009E0000160012084F83500002084F8340007E01D
:1009F000A16C0029BED1BFE7080301D4616C00E0FF
:100A0000E16B09B120468847606DC8B3606DC007CF
:100A10002ED0052084F835002068A90A026822F04B
:100A200001020260009A01328A4200921AD80268DA
:100A3000D20717D0009A01328A42009212D8026877
:100A4000D2070FD0009A01328A4200920AD8026877
:100A5000D20707D0009A01328A42009202D8026877
:100A6000D207DFD1012084F83500002084F834005B
:100A7000E16C29B1204601B0BDE8F040084700BF55
:100A800001B0F0BD2DE9F041044600F0EBF9ECB106
:100A90000546022084F835000020216884F83400DF
:100AA000086820F00100086021680868C00711D0BC
:100AB00000F0D8F9401B0528F6D903252023032090
:100AC000636584F83550BDE8F08100BF0120BDE8C2
:100AD000F08100BF086848F23F02CFF21002D4E96B
:100AE000013500EA020C04F10C0898E8C10143EA60
:100AF0000C032B431843D4E9072E304338431043EB
:100B0000626A40EA0E00042A40EA08031CD1206B06
:100B1000D4E90A2E40EA0E00184308604869BEF185
:100B2000000F20F0030040EA020040F0040C11D056
:100B3000B8F5005F36D0B8F1000F45D1022A46D093
:100B4000012A3BD032B942E00B60486920F007002F
:100B500040EA020C01F0F8004AF6AB221038CAF65F
:100B6000AA22A0FB02231A0943F67053C0F6000321
:100B70009A5C40F2FF335F284FF03F00C1F814C089
:100B800021EA030100FA02F088BF0431C4E9161219
:100B90008860002301250020636584F83550BDE896
:100BA000F08100BF032AD5D8012540230120DFE8CA
:100BB00002F0030E030500BF82E700BFAEF1C07074
:100BC000B0FA80F0400904E0032A04D3C2D1CEF386
:100BD00000600028BED0012540230120636584F811
:100BE0003550BDE8F081000070B590F834C0BCF11C
:100BF000010F46D04FF0010C80F834C0D0F858E017
:100C000090F835C0BCF1010F38D14FF0020C80F8DC
:100C100035C04FF0000CC0F854C0D0F800C0846854
:100C2000056CC06DDCF80060402C26F48026CCF802
:100C30000060CCF804300B4604BF13460A463F213F
:100C400001FA00F0CCF80830CCF80C20CEF80800FF
:100C5000DCF8000040F01600CCF800002DB1DCF804
:100C6000000040F00800CCF80000DCF8000040F084
:100C70000100CCF80000002070BD00BF002180F80A
:100C80003410022070BD0000B0B5044600F0EAF850
:100C9000054640F21400C2F200000078611C18BF43
:100CA000044400BF00F0DEF8401BA042FAD3B0BD00
:100CB0002DE9F04F82B000F13E4241F6000502F10D
:100CC000FF77C4F20205072243F6004E4FEAB7262B
:100CD000A84208BF0622C4F2010E062E38BF4FEA12
:100CE000B7220125002600274FF00008009208E0F7
:100CF00008F101080437B8F1100F06F1020600F000
:100D0000A7800C6805FA08F914EA090FF0D0D1F8A9
:100D100004B003220BF0030CACF10104B240012C2F
:100D20006FEA020A10D88268CC6802EA0A02B4406C
:100D3000224382604268CBF3001422EA090204FADB
:100D400008F42243426005E0BCF1030F02D14FF0EA
:100D5000030C20E0C2688C6802EA0A02B440224315
:100D6000BCF1020FC26016D16FF0030202EA580212
:100D70000244D2F820C007F01C050F230C69AB40D9
:100D80002CEA030304FA05F52B431362D1F804B0EF
:100D900001250BF0030C02680CFA06F302EA0A02C2
:100DA0001A431BF4403F0260A2D0002243F64403E2
:100DB0000192C4F202031A684FF6084C42F48042D2
:100DC0001A601A68CFF6FF7C02F480420192019A01
:100DD00028F00302724452F80C3007F00C050F247F
:100DE000AC40A343009C04FA05F52B4342F80C30B9
:100DF000DEF808204B6842EA090543F60C4CDC0299
:100E000058BF22EA0905CEF80850C4F2010CDCF8FC
:100E100000209C0242EA090558BF22EA0905CCF8E5
:100E20000050DEF804209C0342EA090558BF22EA7C
:100E30000905CEF80450DEF80020DB0342EA09057C
:100E400058BF22EA0905CEF80050012550E700BF3F
:100E500002B0BDE8F08F0000002A08BF09048161DC
:100E60007047000040F6D010C2F2000000687047E2
:100E700040F2140040F6D011C2F20000C2F20001AC
:100E800000780A68104408607047000080B543F697
:100E90000040C4F20200016841F400710160016881
:100EA00041F480610160016841F4807101600320B8
:100EB00000F08AF8002000F005F800F027F8002084
:100EC00080BD000070B540F21406C2F2000640F288
:100ED0001C013278C2F200014FF47A730968B3FB47
:100EE000F2F20446B1FBF2F1084600F09BFE0F2C33
:100EF0004FF0010508D838B94FF0FF3021460022E5
:100F0000002500F035F87460284670BD82B00020DE
:100F100043F640010190C4F202014A6842F4804263
:100F20004A604A6802F480420192019A009008687F
:100F300040F080500860086800F0805000900098F1
:100F4000072002B000F040B8002848BF7047C1B287
:100F500000F01F00012202FA00F04EF20012CEF261
:100F6000000242EAD10121F003010860704700004D
:100F700010B54EF60C5CCEF2000CDCF80030C3F37A
:100F8000022E8EF00704042C28BF0424BEF10303B4
:100F90004FF0FF3E0EFA04F438BF0023A1439940FE
:100FA0000EFA03F39A43114300F00F0200F160437D
:100FB0000901043A03F564436244002848BF02F182
:100FC0000C03197010BD00004EF60C51CEF200015A
:100FD0000A684FF6FF031A4060F30A2242F080606D
:100FE00040F0FD70086070472DE9F041002800F0E6
:100FF0008B8043F60808C4F202080446D8F8F803C8
:101000000D4600F00F00884207D288F8F853D8F850
:10101000F80300F00F00A84276D12068810717D5A9
:10102000410705D5D8F8001041F4E051C8F8001088
:10103000010705D5D8F8001041F46041C8F8001048
:10104000D8F80010A26821F0F0011143C8F8001090
:10105000C0073FD1D8F8F80300F00F00A84207D925
:1010600088F8F853D8F8F80300F00F00A8424BD1E5
:101070002068410707D5D8F80010E26821F4E05154
:101080001143C8F80010000708D5D8F800002169FE
:1010900020F4604040EAC100C8F8000000F07CF88D
:1010A000D8F8001043F65052C1F30311C0F6000205
:1010B000515C40F21C0220FA01F140F21800C2F229
:1010C00000000068C2F200021160FFF7FBFE002082
:1010D000BDE8F0816068811E022907D258F8081C1B
:1010E00089015CBF0120BDE8F08111E0012807D132
:1010F00058F8081C89035CBF0120BDE8F08107E0B7
:1011000058F8081C890703D40120BDE8F08100BF0E
:10111000D8F8001021F003010843C8F80000FFF7D9
:10112000A1FE064641F28837D8F80000616800F059
:101130000C00B0EB810F8DD0FFF794FE801BB842FE
:10114000F2D90320BDE8F08140F21C0043F608010B
:10115000C2F20000C4F202010068096843F660525E
:10116000C1F38221C0F60002515CC8407047000004
:1011700040F21C0043F60801C2F20000C4F2020172
:101180000068096843F66052C1F34231C0F60002BC
:10119000515CC8407047000010B543F60404C4F227
:1011A00002046068C0F3810142F20040C0F2F40022
:1011B000DFE801F04402081841F20020C0F27A0092
:1011C00010BD00BF216801F03F0221682368490279
:1011D000C3F3881116D4A1FB00010023FFF70EF81A
:1011E00017E000BF216801F03F022168236849022F
:1011F000C3F3881116D4A1FB00010023FEF7FEFF04
:1012000017E000BF41F20020C0F27A004843B0FB73
:10121000F2F021680222C1F3014102EB4101B0FB6F
:10122000F1F010BD41F20020C0F27A004843B0FB5B
:10123000F2F02168C1F30271B0FBF1F010BD0000C3
:101240002DE9F04182B0002800F096800446007835
:1012500043F60006C007C4F202062BD0B06800F0C7
:101260000C00042820D0B06800F00C00082802D13F
:101270007068400218D4B06800F00C000C2802D14D
:101280007068400210D46068B0F5803F07D0B0F5B8
:10129000A02F40F03B81306840F4802030603068FF
:1012A00040F4803030603BE13068800302D56068F4
:1012B000002861D02078800722D5B06810F00C0F8C
:1012C00011D0B06800F00C00082802D1706840020C
:1012D00009D5B06800F00C000C2840F09F807068C1
:1012E000400200F19B803068800702D5E068012849
:1012F00042D13068216920F0F80040EAC100306036
:10130000207800073CD42078400751D4A56985B3E4
:10131000B06800F00C00082840F0A880012D2BD008
:101320007068E16900F480028A4225D1216A00F0E8
:101330003F028A4220D147F6C071626A0140B1EB98
:10134000821F19D1A16A4FF6FF73C903994300F4B4
:101350004032A1F580318A420ED1E16A00F070621C
:10136000B2EB016F08D1216B00F0E040B0EB017FE0
:1013700002D1002034E100BF012002B0BDE8F081BD
:101380006069002840F20000C4F247205ED00121CD
:10139000C0F8801EFFF766FD054600BF706F80072E
:1013A000B1D4FFF75FFD401B0228F7D9C5E000BFAD
:1013B000306C10F080580AD100200190306C40F061
:1013C00080503064306C00F080500190019847F2FA
:1013D0000007C4F200073868C00511D4386840F42B
:1013E00080703860FFF73EFD054600BF3868C005D5
:1013F00006D4FFF737FD401B0228F7D99DE000BF58
:10140000A068012805D0052852D1306F40F00400B3
:101410003067306F40F00100306753E0E06800282B
:1014200060D00020C4F2472001210160FFF71AFDBF
:10143000054600BF306880073FF55BAFFFF712FD40
:10144000401B02284FF00300F4D9C9E00021C0F886
:10145000801EFFF707FD0546706F80077FF553AFCD
:10146000FFF700FD401B0228F6D966E00027C4F212
:10147000472700203866FFF7F5FC022D05460BD103
:10148000306880015ED5FFF7EDFC401B02284FF06D
:101490000300F5D9A4E000BF306880017FF569AF93
:1014A000FFF7E0FC401B02284FF00300F4D997E05F
:1014B000316F002821F001013167316F21F0040103
:1014C000316763D0FFF7CEFC054641F2883700BF95
:1014D000306F80076CD4FFF7C5FC401BB842F7D9CA
:1014E0002BE000BF0020C4F2472000210160FFF77D
:1014F000B9FC0546306880077FF502AFFFF7B2FC04
:10150000401B02284FF00300F4D969E0316800283D
:1015100021F480313160316821F48021316051D073
:10152000FFF7A0FC054600BF306880033FF5C2AE60
:10153000FFF798FC401B6428F6D9032002B0BDE8F1
:10154000F08100BF04F11C052FCD246B084340EA55
:101550008210D9034FF6FF729143A1F5803140EA22
:101560000560084340EA0470706001203866FFF7A8
:1015700079FC0446306880013FF5FBAEFFF772FC52
:10158000001B02284FF00300F4D929E0FFF76AFCA2
:10159000054641F2883700BF306F800708D5FFF756
:1015A00061FC401BB8424FF00300F5D918E000BFC2
:1015B000B8F1000F7FF4AAAE306C20F08050306498
:1015C000A4E600BFFFF74EFC0546306880037FF5B8
:1015D00071AEFFF747FC401B64284FF00300F4D9BD
:1015E00002B0BDE8F081000070470000B0B582B0E5
:1015F000044600684168826812F0400305D112F089
:10160000010518BF11F0400512D1950708D511F05A
:10161000800505D0616C204602B0BDE8B0400847A7
:1016200012F4B07F18BF11F0200507D102B0B0BD91
:10163000216C204602B0BDE8B0400847BBB194F829
:101640005130032B08D100210191C16801918068BC
:101650000190019802B0B0BD636D43F0040363656F
:1016600000230193C368019383680193019B12F0E7
:10167000200302F4807203D18AB9626DDAB9D5E72A
:10168000636D43F001036365002301938368019355
:10169000036823F040030360019B002AEDD0626DD4
:1016A00042F0080262650022019282680192019A6A
:1016B000626D002ABAD04268890722F0E0024260D7
:1016C0004FF0010284F8512020D0416842F2555574
:1016D00021F003014160E06CC0F6000538B10565FA
:1016E000FFF7DAF818B1606D40F040006065A06C5B
:1016F00000289BD00565FFF7CFF800283FF496AF90
:10170000606D40F04000606502B0B0BD204602B0A0
:10171000BDE8B040FFF768BF70B538B10446406A15
:1017200030B10020206104F1140007E0012070BDF9
:101730006068B0F5827F03D004F11C0000210160D5
:101740000026A66294F8510020B9204684F8506023
:1017500000F03CF8022084F8510094E80F0001F4F6
:101760008271056802F4044225F0400505601144C9
:1017700003F400622369114403F002026369114417
:1017800003F00102A369E569114403F400721144F6
:1017900005F03802256A114405F08002A56A11435C
:1017A00005F4005211430160626A042101EA134109
:1017B00002F0100211444160C16921F40061C1616D
:1017C0000120666584F85100304670BD70B586B062
:1017D0000446016843F20000C4F20100814201D0D6
:1017E00006B070BD002643F630010196C4F2020136
:1017F0004A6900F5504042F480524A614A6902F455
:1018000080520192019A01960A6842F001020A6030
:10181000096801F0010101910199E0210191022182
:10182000CDE90216032104910521059101A9FFF7D5
:101830003FFA40F2880546F25840C2F20005C4F271
:1018400002004FF0C06140224FF4806385E84700FA
:101850002846C5E90436C5E90666C5E90866FFF706
:1018600011F9002818BFFEF749FD232000210022AE
:10187000A564AC63FFF77CFB2320FFF765FB06B094
:1018800070BD00002DE9F04184B01D4616460F469C
:101890000446FFF7E7FA94F8511001290ED180466B
:1018A000002F4FF0010018BF002E03D104B0BDE897
:1018B000F08100BF94F85000012803D1022004B049
:1018C000BDE8F081012084F850000320002184F855
:1018D000510061652763A686E686A163A187E1873B
:1018E000A0682164B0F5004F2068616407D10168E9
:1018F00021F040010160016841F48041016001680C
:10190000490603D4016841F0400101606168731E1B
:10191000E268B1FA81F1B3FA83F349095B09B2F5E0
:10192000006F41EA030139D131B137F8021BC160C0
:101930002763E08E0138E086E08E002870D0681CB6
:101940000BD11AE0216B31F8022BC2602163E08ECB
:101950000138E086E08E002862D02068816889071F
:10196000F0D4FFF77FFAA0EB0800A842F2D338E0EA
:10197000FFF778FAE08E002852D020688168890746
:10198000F6D5216B31F8022BC2602163E08E01385D
:10199000E086E08E0028F0D142E000BF39B139780E
:1019A0000173206B01302063E08E0138E086E08E09
:1019B000B0B3681C0BD123E0216B09780173206B55
:1019C00001302063E08E0138E086E08E40B320686D
:1019D00081688907F0D4FFF745FAA0EB0800A84218
:1019E000F3D3012084F85100002084F85000032034
:1019F00004B0BDE8F08100BFFFF734FAE08E78B1A3
:101A0000206881688907F7D5216B09780173206BFD
:101A100001302063E08E0138E086E08E0028EFD1AF
:101A20002046022101222B46CDF8008000F036FE30
:101A3000E0B1606D40F02000606520206065A06826
:101A400038B9002002902068C16802918068029035
:101A50000298012084F85100002084F85000606D45
:101A6000002818BF012004B0BDE8F08140F21C003E
:101A7000C2F20000006849F68171C1F25E61A0FB0C
:101A80000101480D4FF47A71484303906068B0F546
:101A9000827F0BD12046802100222B46CDF800808A
:101AA00000F0FCFD0028C4D1C9E700BF039800285E
:101AB000C5D0039801380390206880680006BED521
:101AC00003980028BBD003980138039020688068F1
:101AD0000006B4D503980028B1D0039801380390CC
:101AE000206880680006AAD503980028A7D003982C
:101AF00001380390206880680006D7D49FE7000073
:101B000010B5044690F8510001280BD100294FF080
:101B1000010018BF002A01D110BD00BF94F8500089
:101B2000012801D1022010BD012084F850000320BB
:101B30004FF0000E84F85100C4F854E02163A286EF
:101B4000E286C4F838E0C4E910EEA4F83CE0A4F85A
:101B50003EE0A0682268B0F5004F07D1106820F081
:101B600040001060106840F480401060A06C42F2A9
:101B7000815C42F28953C0F6000CC0F60003C0E954
:101B80000F3C42F26153C0F60003C0E9133EE38EFE
:101B90000C32FFF729F848B1606D40F01000606525
:101BA000002084F85000012010BD00BF21680868A3
:101BB000400603D4086840F040000860002084F824
:101BC00050004A6842F020024A604A6842F002022D
:101BD0004A6010BD704700007047000040F22000CE
:101BE000C2F20000C16802290CD001290ED059B9F7
:101BF0008169002918BF704701218161C1680131E5
:101C0000C160704781690160704700BF816919B187
:101C100001318161704700BFC2680132C260013189
:101C200081617047411E0020B0EB116F1CBF012085
:101C300070474EF21002CEF2000251604EF6235170
:101C4000CEF20001F0230B70072190601160704705
:101C5000FFF7C4BF704700007047000010B590F850
:101C60003C20012A4FF0020251D080F83D2002684A
:101C7000D2F804E0D2F808C00C682EF070032343B9
:101C800041F2FF74C4F20004A24253600EDC40F241
:101C9000FF73C4F200039A4216DCB2F1804F2BD0DE
:101CA00040F20043C4F2000324E000BF40F2FF33DF
:101CB000C4F201039A4213DC41F60003C4F20003AC
:101CC0009A4219D0002313E040F60003C4F2000347
:101CD0009A4211D040F60043C4F200030AE000BF6C
:101CE00044F20003C4F201039A4205D040F20043DB
:101CF000C4F201039A4204D149682CF080031943CD
:101D000091600121002280F83D1080F83C201046AF
:101D100010BD0000002804BF0120704710B5044624
:101D200090F83D0028B9002084F83C00204600F0DF
:101D30001FF8022084F83D002068211D00F0AAFD54
:101D4000012084F8460084F83E0084F83F0084F8BF
:101D5000400084F8410084F8420084F8430084F88D
:101D6000440084F8450084F83D00002010BD0000C8
:101D700080B582B00068B0F1804F1CBF02B080BD5A
:101D80000020019043F64000C4F2020001680022E6
:101D900041F0010101600068002100F001000190A4
:101DA00001981C20FFF7E4F81C2002B0BDE8804039
:101DB000FFF7CAB890F83D1001291CBF01207047F9
:101DC000022180F83D10006841F2FF72C168C4F240
:101DD0000002904241F00101C1600DDC40F2FF7150
:101DE000C4F20001884215DCB0F1804F2AD040F2E5
:101DF0000041C4F2000123E040F2FF31C4F20101CE
:101E0000884213DC41F60001C4F20001884219D077
:101E1000002113E040F60001C4F20001884211D015
:101E200040F60041C4F200010AE000BF44F20001A4
:101E3000C4F20101884205D040F20041C4F2010120
:101E4000884206D1816801F00701062904BF0020FD
:101E50007047016841F001010160002070470000F7
:101E600080B590F83C20012A4FF0020200F0C280B9
:101E700080F83D20D0F800C04FF67772DCF80830CB
:101E800023EA0202CCF808200B684F2B28DC1F2B1A
:101E900044DD202B45D0302B43D0402B40F0AC808C
:101EA000D1F804E0C968DCF82030DCF8202022F00A
:101EB0000102CCF82020DCF8182022F0F00242EADF
:101EC000011123F00A0242EA0E02CCF81810CCF8F5
:101ED0002020DCF8081041F0470121F0300180E0BB
:101EE0006F2B27DDB3F5005F48D0B3F5805F7AD064
:101EF000702B40F08180D1E901E3C968DCF808204B
:101F000043EA0E0322F47F4243EA01211143CCF855
:101F10000810DCF8081041F0770162E00BB1102BDB
:101F20006AD1DCF8081021F07001194341F0070173
:101F300057E000BF502B35D0602B5DD1D1F804E0C5
:101F4000C968DCF82030DCF8202022F01002CCF840
:101F50002020DCF8182022F4704242EA013123F0FC
:101F6000A00242EA0E12CCF81810CCF82020DCF8BF
:101F7000081041F0670121F0100132E0D1E901E3DE
:101F8000C968DCF8082043EA0E0322F47F4243EAE2
:101F900001211143CCF80810DCF8081041F480410D
:101FA0001FE000BFD1F804E0C968DCF82030DCF89D
:101FB000202022F00102CCF82020DCF8182022F0AA
:101FC000F00242EA011123F00A0242EA0E02CCF8C2
:101FD0001810CCF82020DCF8081041F0570121F04F
:101FE0002001CCF808100022012180F83D100021CA
:101FF00080F83C10104680BD0122F5E770470000D4
:1020000070B504460068C5680669B10716D515F0B5
:10201000020113D06FF00201016101212177806973
:10202000800703D02046FFF7E9FF05E0204600F0D7
:102030008FF8204600F08EF800202077700719D521
:1020400015F0040016D020686FF004010161022130
:102050002177806910F4407F04D02046FFF7CEFF3F
:1020600006E000BF204600F073F8204600F072F84A
:1020700000202077300717D515F0080014D020680D
:102080006FF00801016104212177C069800703D046
:102090002046FFF7B3FF05E0204600F059F8204640
:1020A00000F058F800202077F00619D515F0100040
:1020B00016D020686FF01001016108212177C069F6
:1020C00010F4407F04D02046FFF798FF06E000BFE1
:1020D000204600F03DF8204600F03CF80020207734
:1020E000F00718BF15F0010002D1300609D412E044
:1020F00020686FF001010161204600F02DF83006E4
:1021000009D515F0800006D020686FF080010161CC
:102110002046FFF79FFD700609D515F0400006D058
:1021200020686FF040010161204600F055F8B006CC
:1021300058BF70BD15F0200008D021686FF0200254
:1021400020460A61BDE87040FFF786BD70BD000003
:10215000704700007047000040F2200CC2F2000CF3
:10216000DCF8001091B340F20C01C2F200010A68E1
:10217000A02A02D14A68772A09DC0A68B2F59B7F57
:1021800005DA4A68E52A02DC4A68092A02DC0222EA
:10219000CCF808200B68DCF81020A2F11400834270
:1021A00018DB086814329042C8BF70474868DCF8F2
:1021B0001420A2F1140398420CDB486802F11401C8
:1021C0008842DCBF0120CCF8080003E0DCF80810EE
:1021D0000029C8D07047000070470000002804BFE5
:1021E0000120704710B5044690F8410028B900203E
:1021F00084F84000204600F021F8242084F84100B3
:102200002068C16821F40051C160204600F0E8FB5D
:102210002068016921F490410161416921F02A019E
:102220004161C16841F40051C16000202021606417
:1022300084F8411084F84210606310BD80B586B008
:10224000016844F20040C4F20000814202D006B0AE
:1022500080BD00BF002143F630020191C4F20202AA
:10226000136900F5DE3043F400331361136903F49E
:1022700000330193019B0191136843F00103136044
:10228000126802F001020192019A0C2201920222CC
:10229000CDE90221032104910721059101A9FEF74F
:1022A00007FD06B080BD0000FEE70000B0B584B0B9
:1022B00040F2400042F2000101230024C2F200007B
:1022C000C4F20101C0F60073012503944FF480327B
:1022D000047680F82040C0E90A34C56180F83040B7
:1022E00080E81600C0E903444561FEF7C9F80028FC
:1022F00018BFFEF703F80920CDE9000540F24000C1
:10230000C2F2000069460294FDF7FCFF002818BFE6
:10231000FDF7F4FF04B0B0BD80B582B0002001909D
:1023200043F63000C4F202000168002241F480014B
:1023300001600068002100F48000019001983B20BA
:10234000FEF716FE3B2002B0BDE88040FEF7FCBD64
:102350002DE9F04387B0002743F63000CDE905773B
:102360000197C4F20200016840F6000941F004013F
:1023700001600168C4F2020901F0040101910199B0
:1023800001970168002241F080010160016801F0BD
:102390008001019101990197016841F001010160FB
:1023A000016801F00101019101990197016841F073
:1023B00002010160006841F28C4100F002000190CE
:1023C00001984846FEF748FDA9F5806528464FF478
:1023D000886100224FF48868FEF73EFD4FF40050FC
:1023E00002904FF4041002AECDE90307484631468F
:1023F000FEF75EFC41F20C4002901120CDE903078C
:10240000484631460597FEF753FC4FF4B870CDE9C6
:1024100002070124484631460494FEF749FC284649
:102420003146CDE90284CDE90477FEF741FC8020F6
:1024300002A991C1484631460597FEF739FC07B01D
:10244000BDE8F08380B540F2E80043F20001C2F23B
:102450000000C4F201014FF4827200234FF4007CAB
:1024600080E80E000A21C0E90333C0E9053CC361DE
:10247000C0E90833C0E90A31FFF74EF9002808BF68
:1024800080BDBDE88040FDF739BF000080B586B053
:1024900040F2401048F29F6C0021C2F200004FF061
:1024A00080425323C0F2010C0591CDE90311CDE91F
:1024B0000011C0E90023C0E9021C01618161FFF73E
:1024C00029FC002818BFFDF719FF4FF48050029037
:1024D00040F24010C2F2000002A9FFF7C1FC002840
:1024E00018BFFDF70BFF40F24010C2F20000694632
:1024F000FFF7B4FB002818BFFDF700FF06B080BD52
:1025000080B540F2881044F20041C2F20000C4F2EB
:10251000000100234FF00C0C4FF4E13280E80E0074
:10252000C0E90333C0E905C3C361FFF757FE0028C4
:1025300008BF80BDBDE88040FDF7E0BEFEE70000BB
:10254000FEE700007047000040F2E800C2F2000021
:10255000FFF74CB8806B0021C187C186FFF744B8F4
:10256000806B01684A6822F003024A60416D41F0C5
:1025700010014165012180F85110FFF735B80000C6
:10258000806BFFF729BB0000B0B584B0846B0546B3
:10259000FEF768FC29680968C90531D4054620683A
:1025A00001224168642321F020014160416821F04B
:1025B0000201416020460221009500F06FF828B327
:1025C000606D40F020006065606D40F02000606547
:1025D000A06838B9002002902068C1680291806824
:1025E000029002980020E086012084F85100606D7E
:1025F00030B1204604B0BDE8B040FEF7F5BF00BFE3
:10260000204604B0BDE8B040FFF7E4BA40F21C0039
:10261000C2F20000006849F68171C1F25E61A0FB60
:102620000101480D4FF47A71484303906068B0F59A
:10263000827F09D12046802100226423009500F08A
:102640002DF80028BCD1C3E703980028C0D0039818
:1026500001380390206880680006B9D503980028E7
:10266000B6D0039801380390206880680006AFD583
:1026700003980028ACD00398013803902068806844
:102680000006A5D503980028A2D00398013803902E
:10269000206880680006D7D49AE700002DE9F0434F
:1026A00081B0089C984615460E468146FEF7DAFB37
:1026B000201A00EB0804FEF7D5FB40F21C01C2F221
:1026C00000010968C1F3CB3161430091D9F80010D2
:1026D0008A683240921BB2FA82F25209AA423DD075
:1026E000074618F1010031D0FEF7BCFBC01BA04229
:1026F00038D2009800990028A1F101010091D9F881
:102700000010896808BF044601EA0600801BB0FA81
:1027100080F04009A842E7D120E000BF886830403F
:10272000801BB0FA80F04009A84217D0886830407A
:10273000801BB0FA80F04009A8420FD08868304072
:10274000801BB0FA80F04009A84207D0886830406A
:10275000801BB0FA80F04009A842DFD1002001B010
:10276000BDE8F083D9E900014268B1F5827F22F02B
:10277000E00242600BD1D9F80810B1F5004F02D049
:10278000B1F5806F03D1016821F040010160D9F8F3
:102790002810B1F5005F07D1016821F400510160F4
:1027A000016841F400510160012089F851000020C6
:1027B00089F85000032001B0BDE8F08370470000A5
:1027C00080B5FEF755FBBDE88040FFF741BA000039
:1027D000B0B594B0002443F640000C94CDE90A440F
:1027E000CDE908440694CDE90444CDE902440194BE
:1027F000C4F202000168012241F0805101600068CA
:10280000022500F080500190019847F200000194E9
:10281000C4F20000016862F38F310160006800F4C7
:1028200040400190019810200B900F904FF4A87039
:1028300010900420CDE9110507A807950A92CDE96B
:102840000D541395FEF7FCFC10B172B6FEE700BF05
:102850000F20CDE902054FF48050CDE9050402A810
:1028600002210494FEF7C0FB10B172B6FEE700BF70
:1028700014B0B0BD4EF68850CEF20000016841F4AD
:10288000700101607047000040F24010C2F2000089
:10289000FFF7B6BB10B540F6FF3E0368C4F2000E6A
:1028A00040F2004C7045C4F2010C27DCB0F1804FBF
:1028B00031D040F20042C4F2000290422BD040F6E8
:1028C0000002C4F20002904225D041F6FF72C4F229
:1028D0000002904229DC70453CDCB0F1804F5FD0B3
:1028E00040F20042C4F20002904259D040F6000289
:1028F000C4F20002904253D056E000BF40F60042BE
:10290000C4F20002904206D0604504D00022C4F216
:1029100001029042D9D14A6823F07003134341F673
:10292000FF72C4F200029042D5DD43F6FF72C4F29A
:102930000102904222DC42F20002C4F20002904204
:102940002ED00022C4F20102904229D0604527D047
:102950002AE000BF40F60042C4F2000290421FD0BD
:1029600041F60002C4F20002904219D041F6004242
:10297000C4F20002904213D016E000BF44F20002FD
:10298000C4F2010290420BD044F60002C4F20102EC
:10299000904205D044F20042C4F20102904203D1B9
:1029A000CA6823F44073134323F080024B69D1F8C3
:1029B00000E08C681A430260C46240F48062C0F890
:1029C00028E0624504BF0969016301214161016991
:1029D000C90708BF10BD016921F00101016110BDE7
:1029E00010B504460068D4E902C22369016921F4E4
:1029F000405111430161626943EA0C01E3691143EB
:102A0000C268194349F20C639A431143C16041699A
:102A1000A26921F4407141F20043114340F4806205
:102A2000C4F201039A42416102D1FEF7A1FB01E029
:102A3000FEF78AFBE16963681922B1F5004FA0FB3C
:102A4000020123D15A00DB0FFDF7D8FB48F21F51DA
:102A5000C5F2EB11A0FB01235A094FF69C73C0F697
:102A6000FF7303F1805302FB0300322303EBC0002A
:102A7000A0FB01014FF4F87000EA111000EB021006
:102A8000C1F3421108442168886010BD9A009B0F71
:102A9000FDF7B4FB48F21F51C5F2EB11A0FB012377
:102AA0005A094FF69C73C0F6FF7302FB03003223F2
:102AB00003EB0010A0FB0101F02000EA511000EB35
:102AC0000210C1F3431108442168886010BD000062
:102AD000FEE700002038C1B25F2928BF0020C0B245
:102AE000704700002DE9F04F87B08346808B1DB200
:102AF00085422FDABBF81E70B7EB234F2ADD91F821
:102B000000E08A46BEF1000F24D09AF801C0BCF163
:102B1000000F1FD025EAE574002D58BF00254FEAAD
:102B20001349AEEB05059046002B4E46624614FA5B
:102B300085F144BF0026A2EB0902814288BF051B34
:102B400016FA82F0B84288BFBA1B280418BF5FEAA1
:102B5000024003D107B0BDE8F08F00BF1098CDE967
:102B600002930CFB0EF4FFF7B5FF9AF801C0049432
:102B7000BCF1000F34D098FA88F14FEA114E9AF860
:102B800000104FF47F4240F2D01902EA18220023CD
:102B9000C2F200090C4603E000240133634523D24E
:102BA000002CF9D00CFB00360AEB4606758800268F
:102BB00003FB046405FA06F771463F0458BF42EA76
:102BC000186129F814109AF800400136A642EFD394
:102BD0009AF801C0214601336345E1D304E000BF08
:102BE0009AF800104FF0000C039E029F7018451ECB
:102BF00007EB0C00441E584600F0A4FE300A8DF886
:102C00001800280A8DF81A008DF81B5006AD58469A
:102C10004FF0FF312A2204238DF81960009500F04F
:102C2000E1FE300E8DF81400200A8DF815708DF835
:102C3000160005AF58464FF0FF312B2204238DF8C4
:102C40001740009700F0CEFE58464FF0FF312C227F
:102C500000F07EFE584600F06FFE584600F072FE0F
:102C6000DBF81400BBF818100122FEF7F5F8049FFA
:102C700017B340F2D016C2F200063C4602E000BF95
:102C8000641B19D0A742254638BF3D46B5F5806F75
:102C900028BF4FF48065002DF2D06900DBF80000FA
:102CA0008AB23146FEF72CFFDBF80000806CFDF79E
:102CB00005FE0228F8D0E3E7584600F03DFE07B0D5
:102CC000BDE8F08F2DE9F04F85B0DDE90EC48646F2
:102CD0009445A4EB030011D19C424FD002B280EA8C
:102CE000E230A0EBE230012287B2009270466246E9
:102CF000019700F0B1F905B0BDE8F08FACEB020729
:102D00009C420FFA87FB11D1BBF1000F48BFCBF1FA
:102D1000000B1FFA8BF001270090704623460197A5
:102D200000F09AF905B0BDE8F08F00BF07B280EA65
:102D3000E730A0EBE730BBF1000F1FFA80F848BF87
:102D4000CBF1000BC34509D266461546A3420BDC06
:102D5000304627462E461C4608E000BF26466446FD
:102D60001D461346A342F3DD28461F464FF0FF3CA5
:102D7000B042C8BF4FF0010CA74203DA05B0BDE86E
:102D8000F08F00BFA7EB04090FFA89F2801B4FEA0E
:102D9000620A049002D5049840420490CDE902B83A
:102DA0000EE000BF0498AAEB000A0FFA8AF0002890
:102DB00004F1010004B244BFCA446644BC42DDDCF5
:102DC0002546C34538BF35462AB2304638BF20466F
:102DD000002AE7D4BEF81C30ADB29D42E2D803B25F
:102DE000002BDFD4BEF81E5080B2A842DAD870465D
:102DF0000D46F346C846E14600F008F8CC46C14609
:102E0000DE46DDE902B82946CCE700002DE9F041B5
:102E100084B00446808B824252DAE08B83424FDAE0
:102E200048BA22EAE27723EAE375ADF806002046C5
:102E30007E1C05F1010800F085FD380A8DF80C00B4
:102E4000300A8DF80D708DF80E0003AF20464FF05C
:102E5000FF312A2204238DF80F60009700F0C2FD95
:102E6000280A8DF808004FEA18208DF80A0002AFF2
:102E700020464FF0FF312B2204238DF809508DF8A6
:102E80000B80009700F0AEFD20464FF0FF312C2262
:102E900000F05EFD204600F04FFD204600F052FDA0
:102EA0006069218B0122FDF7D7FF20680DF1060133
:102EB00002224FF0FF33FEF7E5FC204600F03CFD18
:102EC00004B0BDE8F08100002DE9F04F81B00A9D0B
:102ED000994690468A4683461C0C1E462F780A2F38
:102EE00005D120E04E4601352F780A2F1BD00D2F3B
:102EF000F8D0EFB1BBF81C0031B2814218DCBBF84E
:102F00001E0021B2814213DCC6EA044358465146F2
:102F100042460097FFF7E6FD9AF8000001350644A7
:102F20002F780A2FE3D19AF801000444DAE700BFB2
:102F300001B0BDE8F08F00002DE9F04F89B0129C80
:102F400004939BB21F1B07EB440301331BB2019395
:102F50003BB2CDE9020105920092FFF7B3FE012CCE
:102F600076DB4FF0000AAAEB4402C4F1010501230D
:102F7000264605E018B2831C1D44B345DA4667DADD
:102F800028B2B0F1FF3F6FEAD03002F102013044C5
:102F9000C4BF0D440A4606B20AF101000FFA8AF1D5
:102FA0008E420FFA80FB0894CDE9063222DD0499A7
:102FB0000598891B01EB4602DDF80880DDF80C90CE
:102FC0005844531C0CB202B21FB240464946234635
:102FD00000920197FFF776FE05984946A0EB0B009B
:102FE00002B240462346089C00920197FFF76AFE12
:102FF000DDE90632A0B2B1B28142BBD00499DDF85E
:103000001490A1EB0A0104EB090001EB4A02029CB7
:10301000039F531C0FFA81F802B20FFA83FA20467D
:10302000394643460092CDF804A0FFF74BFE0898BE
:103030003946A9EB000002B2204643460092CDF883
:1030400004A0FFF73FFEDDE90632344692E700BFF9
:1030500009B0BDE8F08F00002DE9F04784B0878B00
:10306000BA4229DADDF834C0BCF1000F24D004469E
:103070000C9808B3E58BAB421EDA22EAE27A00260E
:10308000002A58BF3246801A23EAE378002B48BF53
:103090001E46ACEB06091AFA80F2BA4218FA89F217
:1030A00088BFA7EB0A00AA4288BFA5EB0809020463
:1030B00018BF5FEA094203D104B0BDE8F08700BF42
:1030C00082B21FFA89F303FB02F63546B6F5806F2C
:1030D00028BF4FF480656A1E40F2D01C49BA05F043
:1030E000030E032AC2F2000C02D2002310E000BF3C
:1030F00040F2FC7205EA0207ACF10802002300BFAF
:10310000043322F8081F9F4251809180D180F7D16B
:10311000BEF1000F0BD0BEF1010F2CF8131006D03A
:103120000CEB4302BEF1020F518018BF9180504456
:10313000471E08EB0900A0F10109204600F002FC3F
:103140004FEA1A208DF80C00380A8DF80E008DF821
:103150000F7003AF20464FF0FF312A2204238DF871
:103160000DA0009700F03EFC4FEA18208DF80800F3
:103170004FEA19208DF80A0002AF20464FF0FF31C8
:103180002B2204238DF809808DF80B90009700F016
:1031900029FC20464FF0FF312C2200F0D9FB2046BD
:1031A00000F0CAFB204600F0CDFB6069218B0122B4
:1031B000FDF752FEE6B140F2D018C2F2000801E07D
:1031C000F61B15D02F46AE4238BF3746B8B200289E
:1031D000F6D0410020688AB24146FEF791FC00BF5C
:1031E0002068806CFDF76AFB0228F9D0E8E700BF91
:1031F000204600F0A1FB04B0BDE8F08780B582B0A6
:10320000828BB0F81EC0009200220023CDF804C0CB
:10321000FFF722FF02B080BD2DE9F04F9FB04FF0C5
:10322000000408B38B46F9B19046EAB11F46DBB102
:10323000289ECEB1DDF8A490B9F1000F14D0054658
:103240002A9888B1DDF8ACA0BAF1030F0CD83098F9
:10325000DDE92E2CDDE92C4301280ED1002C4FF0A6
:10326000000418BF002B03D120461FB0BDE8F08F2B
:10327000002AF9D0BCF1000FF6D0682000F032FD32
:10328000D0B10446DDF8C4C0C0E9005BA0F80880F6
:10329000C7600682C0F814902A98BAF1030F208301
:1032A00084F81AA002D0BAF1010F0BD14FF47001CB
:1032B0004FF4A07209E000BF002420461FB0BDE813
:1032C000F08F00BF4FF0A071F022309B1143DDE979
:1032D0002E57DDE92C60E161002B01A908AA01BF8E
:1032E0004FF0FF3C1E4618461D4608BF1F46002BE8
:1032F00008BF0A464FF000014FF0000908BF4FF029
:10330000FF31A084FF2084F83400C2E90099C2E9AB
:103310000299C2E90499C2F8189084F85C105846E2
:10332000414600222662A562A78584F82E3084F8E3
:103330002FC0C4F83090A4F83690C4E91099C4E9BD
:103340001299C4E91499C4F85890C4F83890A4F8B4
:103350003C90C4E91899FDF77FFDC820FDF794FC67
:103360006068218901220125FDF776FDE068218A48
:103370000122FDF771FD206AA18C0122FDF76CFD91
:10338000E068218A0022FDF767FD6069218B002239
:103390008DF84C50FDF760FD206813A901224FF015
:1033A000FF33FEF76FFA4FF47A70FDF76DFC42F6CB
:1033B0003940C3F20040CDF8760002208DF87A0043
:1033C000CB226069218B8DF84C200022FDF744FD53
:1033D000206813A901224FF0FF33FEF753FA60690A
:1033E000218B0122FDF738FD20680DF176010522C1
:1033F0004FF0FF33FEF746FA4FF44140ADF873004B
:1034000030208DF87500CF226069218B8DF84C201B
:103410000022FDF721FD206813A901224FF0FF33A0
:10342000FEF730FA6069218B0122FDF715FD206857
:103430000DF1730103224FF0FF334FF00308FEF745
:1034400021FA8520ADF8700078208DF87200E8220E
:103450006069218B8DF84C200022FDF7FDFC20686F
:1034600013A901224FF0FF33FEF70CFA6069218B9C
:103470000122FDF7F1FC20681CA903224FF0FF3365
:10348000FEF700FAEA226069218B8DF84C200022B9
:10349000ADF86E90FDF7E0FC206813A901224FF013
:1034A000FF33FEF7EFF96069218B0122FDF7D4FCB1
:1034B00020680DF16E0102224FF0FF33FEF7E2F9B2
:1034C00040F26430C8F21210CDF86A00ED22606953
:1034D000218B8DF84C200022FDF7BEFC206813A93B
:1034E00001224FF0FF33FEF7CDF96069218B0122F5
:1034F000FDF7B2FC20680DF16A0104224FF0FF33A2
:10350000FEF7C0F920208DF86900F7226069218B51
:103510008DF84C200022FDF79FFC206813A90122A2
:103520004FF0FF33FEF7AEF96069218B0122FDF702
:1035300093FC20680DF1690101224FF0FF33FEF783
:10354000A1F923208DF86800C0226069218B8DF8D5
:103550004C200022FDF780FC206813A901224FF0C7
:10356000FF33FEF78FF96069218B0122FDF774FCB0
:1035700020681AA901224FF0FF33FEF783F91020CB
:103580008DF867006069218B4FF0C10A00228DF829
:103590004CA0FDF761FC206813A901224FF0FF3316
:1035A000FEF770F96069218B0122FDF755FC206858
:1035B0000DF1670101224FF0FF33FEF763F942F688
:1035C0003E00ADF86500C5226069218B8DF84C2066
:1035D0000022FDF741FC206813A901224FF0FF33C0
:1035E000FEF750F96069218B0122FDF735FC206858
:1035F0000DF1650102224FF0FF33FEF743F98620FB
:103600008DF86400C7226069218B8DF84C20002260
:10361000FDF722FC206813A901224FF0FF33FEF7CB
:1036200031F96069218B0122FDF716FC206819A988
:1036300001224FF0FF33FEF725F96069218B4827FF
:103640004FF0360B00228DF863708DF84CB0FDF70B
:1036500003FC206813A901224FF0FF33FEF712F993
:103660006069218B0122FDF7F7FB20680DF16301F2
:1036700001224FF0FF33FEF705F955208DF8620067
:103680003A226069218B8DF84C200022FDF7E4FB83
:10369000206813A901224FF0FF33FEF7F3F86069A9
:1036A000218B0122FDF7D8FB20680DF16201012278
:1036B0004FF0FF33FEF7E6F84FF4C050ADF860006E
:1036C000B1226069218B8DF84C200022FDF7C4FBEC
:1036D000206813A901224FF0FF33FEF7D3F8606989
:1036E000218B0122FDF7B8FB206818A902224FF0B8
:1036F000FF33FEF7C7F848F20820ADF85D00272039
:103700008DF85F00B6226069218B8DF84C20002275
:10371000FDF7A2FB206813A901224FF0FF33FEF74B
:10372000B1F86069218B0122FDF796FB20680DF14D
:103730005D0103224FF0FF33FEF7A4F8F222606927
:10374000218B8DF84C2000228DF85C90FDF784FBD6
:10375000206813A901224FF0FF33FEF793F8606948
:10376000218B0122FDF778FB206817A901224FF079
:10377000FF33FEF787F826226069218B8DF84C20F5
:1037800000228DF85B50FDF767FB206813A901222A
:103790004FF0FF33FEF776F86069218B0122FDF7C9
:1037A0005BFB20680DF15B0101224FF0FF33FEF758
:1037B00069F843F20F10C0F62B40139040F60E004C
:1037C000CFF24E10149040F23770C0F210301590C6
:1037D00040F60E10ADF85800E0208DF83D0060690D
:1037E000218B00228DF85A90FDF736FB20680DF1F1
:1037F0003D0101224FF0FF33FEF744F86069218B51
:103800000122FDF729FB206813A90F224FF0FF3397
:103810000F26FEF737F80E208DF83E0014208DF8A5
:103820003F00072008218DF8420031208DF8461016
:103830000C218DF843008DF848108DF84900E122E5
:103840006069218B11258DF87B2000228DF83D9039
:103850008DF840808DF841508DF844A08DF845706A
:103860008DF847608DF84AB08DF84B60FDF7F4FA9B
:1038700020680DF17B0101224FF0FF33FEF702F8C3
:103880006069218B0122FDF7E7FA20680DF13D0107
:103890000F224FF0FF33FDF7F5FF6069218B002207
:1038A0008DF87B50FDF7D8FA20680DF17B010122DD
:1038B0004FF0FF33FDF7E6FF7820FDF7E5F9292209
:1038C0006069218B8DF87B200022FDF7C5FA206806
:1038D0000DF17B0101224FF0FF33FDF7D3FFA07EF6
:1038E0000022A0EB8001042838BF07EB4117606974
:1038F000218B8DF83C708DF87BB0FDF7ADFA206818
:103900000DF17B0101224FF0FF33FDF7BBFF606932
:10391000218B0122FDF7A0FA20680FA901224FF0A8
:10392000FF33FDF7AFFFE068218A0122FDF794FA2B
:1039300020461FB0BDE8F08FC268018A1046012200
:10394000FDF78ABAC268018A10460022FDF784BAE0
:10395000B0B582B0044601298DF8072008D80D467D
:1039600014D0E5B904F10C0004F1100112E000BF1D
:103970006069218B0022FDF76FFA20680DF10701C5
:1039800001224FF0FF33FDF77DFF1DE004F1200021
:1039900004F12401006809880022FDF75DFA6069DE
:1039A000218B0022FDF758FA20680DF10701012252
:1039B0004FF0FF33FDF766FF012D07D025B904F165
:1039C0000C0004F1100105E002B0B0BD04F12000CC
:1039D00004F12401006809880122FDF73DFA02B0D4
:1039E000B0BD00002DE9F04182B0DDF820801D4619
:1039F00016460129044607D80F4621D04FBB04F1D3
:103A00000C0004F110011FE06069218B00228DF889
:103A10000760FDF721FA20680DF1070101224FF040
:103A2000FF33FDF72FFF6069218B0122FDF714FAA8
:103A3000206841462A464FF0FF33FDF723FF2BE075
:103A400004F1200004F12401006809880022FDF738
:103A500003FA6069218B00228DF80660FDF7FCF9FE
:103A600020680DF1060101224FF0FF33FDF70AFF38
:103A70006069218B0122FDF7EFF9206841462A4653
:103A80004FF0FF33FDF7FEFE012F09D027B904F1F7
:103A90000C0004F1100107E002B0BDE8F08100BFA6
:103AA00004F1200004F12401006809880122FDF7D7
:103AB000D3F902B0BDE8F08192B0FDF7E7F9FEF767
:103AC00087FEFEF745FCFEF727FCFEF719FDFEF723
:103AD000B9FCFEF7EBFBFEF7D9FC40F20041C4F263
:103AE000020101F580604027012200268023CDE9F4
:103AF000007040F2E800CDE90862CDE90232C2F27E
:103B000000004FF480620B46CDE9046606960796E6
:103B1000FFF782FB43F66851C0F600010C8840F2C3
:103B20002009C2F200092146C9F81C00FFF766FB14
:103B300043F66E50C0F600000088CDE90C0440EA60
:103B400004400B9040F24010C2F20000FEF732F940
:103B500043F66A50C0F60000B0F800B043F66C506F
:103B6000C0F60000048843F65B5840F240059FED24
:103B7000548AC0F23B484FF0790AC2F200051BE0BC
:103B800042F62E60C0F22E00CDF83F0047F26940A9
:103B9000C2F665600F9046F24450C6F266100E9071
:103BA000D9F81C0043F678510B9AC0F600010023A7
:103BB0000EAF0097FFF788F9FCF752FB50FB08F1B6
:103BC0004A1002EBD17101FB1A00B430C9F81000A1
:103BD000FCF746FB50FB08F14A1002EBD17101FBE8
:103BE0000AF1081A00F1DC01D9F81C00C9F8141018
:103BF000A02100915946A02277230196FFF762F891
:103C0000D9F81C000C990A22E5230A270097FFF730
:103C100093F9D9F81C00B9F91020B9F914302146EC
:103C200014270097FFF788F9D9F8000048B9D9F8A8
:103C3000000030B9D9F8000018B9D9F80000002800
:103C4000F2D02846FCF77CFD28466421FCF7FAFCFC
:103C50002846FCF711FC00EE100AB8EE400A20EEF0
:103C6000080A89ED010A00BFD9F8080048B9D9F857
:103C7000080030B9D9F8080018B9D9F808000028A8
:103C8000F2D0D9F81C000D99FFF7B8FACDF84360CF
:103C90001096CDE90E66D9F8080001287FF470AFC0
:103CA00043F62020C0F22900109046F66F10C6F2AD
:103CB00072500F9046F65610C7F263406FE700BF90
:103CC000410BB43C02E008C8121F08C1002AFAD117
:103CD00070477047002001E001C1121F002AFBD18C
:103CE00070470000F0B50B30154D20F0070100249F
:103CF000144A0FE003688B420BD38B4205D95E1A3E
:103D000043184768C3E9006700E04368136002C0D6
:103D100004E0021D10680028ECD12046002802D1E2
:103D2000286808B10020F0BD064A07481060074A1D
:103D3000121A22F00702C0E9002401202860D7E708
:103D40000800002004000020DC090020D80B00201F
:103D5000000000000000000001020304060708093B
:103D60000000000001020304000020FD1FF8FFFF17
:103D700000061016000610160B12000000000000CE
:103D80000000000000000000000000000000000033
:103D90000000000000000000000000000000000023
:103DA000000C000C000C000C000C000C000C000CB3
:103DB000000C000C000C0000000C000C00000000C7
:103DC00000000000001B001B001B001B001B00006C
:103DD00000000000000000000000000000000000E3
:103DE000000000000000000080198019801980196F
:103DF000C07FC07F80190033C07FC07F0033003395
:103E0000003300330000000000000000001E003FEF
:103E1000807580650074003C001E00078005806589
:103E200080658075003F001E000400040000000053
:103E3000007000D840D8C0D880D900730006000CAC
:103E4000801BC036C066C046C0068003000000006C
:103E500000000000001E003F003300330033001E4E
:103E6000000CC03CC066806380618063C03E801CE3
:103E70000000000000000000000C000C000C000C12
:103E8000000C000000000000000000000000000026
:103E9000000000000000000000008000000100039E
:103EA000000600060004000C000C000C000C000CC6
:103EB000000C000400060006000300018000002042
:103EC00000100018000C000C00040006000600069C
:103ED0000006000600060004000C000C001800108C
:103EE00000200000000C002D003F001E00330000E9
:103EF00000000000000000000000000000000000C2
:103F0000000000000000000000000000000C000C99
:103F1000000C000CC0FFC0FF000C000C000C000CDB
:103F20000000000000000000000000000000000091
:103F30000000000000000000000000000000000081
:103F400000000000000C000C000400040008000049
:103F50000000000000000000000000000000000061
:103F6000001E001E00000000000000000000000015
:103F70000000000000000000000000000000000041
:103F8000000000000000000000000000000C000C19
:103F90000000000000000000000300030003000612
:103FA000000600060006000C000C000C000C0018B7
:103FB000001800180000000000000000001E003F74
:103FC0000033806180618061806D806D806180617F
:103FD00080610033003F001E000000000000000070
:103FE0000006000E001E0036002600060006000631
:103FF000000600060006000600060006000000009D
:1040000000000000001E003F80738061806180011D
:1040100000030006000C001800300060807F807FE5
:104020000000000000000000001C003E0063006370
:104030000003000E000E0003800180018061807388
:10404000003F001E00000000000000000006000EFF
:10405000000E001E001E0016003600360066807F2F
:10406000807F00060006000600000000000000003F
:10407000007F007F006000600060006E007F806352
:104080008001800180618073003F001E00000000FD
:1040900000000000001E003F803380610060006E61
:1040A000007F80738061806180618033003F001EEB
:1040B0000000000000000000807F807F800100037E
:1040C000000300060006000C000C000C000800189D
:1040D000001800180000000000000000001E003F53
:1040E0008063806180610021001E003F80618061EB
:1040F00080618061003F001E0000000000000000A1
:10410000001E003F00738061806180618073803F8A
:10411000801D800180610073003F001E00000000D0
:10412000000000000000000000000000000C000C77
:10413000000000000000000000000000000C000C67
:10414000000000000000000000000000000000006F
:104150000000000C000C0000000000000000000047
:10416000000C000C00040004000800000000000027
:10417000000080008003000E003800600038000E50
:10418000800380000000000000000000000000002C
:104190000000000000000000807F807F0000000021
:1041A000807F807F00000000000000000000000011
:1041B0000000000000000000000000400070001C33
:1041C000000780010007001C007000400000000094
:1041D0000000000000000000001F803FC071C060B0
:1041E000C000C00180030007000E000C000C00009E
:1041F000000C000C0000000000000000001E003F4A
:10420000803180718063806F806D806D806F80678A
:1042100000600032003E001C0000000000000000B2
:10422000000E000E001B001B001B001B80318031A4
:10423000803F803F8031C060C060C06000000000EF
:1042400000000000007C007E0063006300630063E8
:10425000007E007E0063806180618063007F007E5D
:104260000000000000000000001E003F803180615F
:10427000006000600060006000600060806180316C
:10428000003F001E0000000000000000007C007FD6
:104290000063806380618061806180618061806192
:1042A00000630063007E007C00000000000000004E
:1042B000807F807F0060006000600060007F007F82
:1042C0000060006000600060807F807F0000000070
:1042D00000000000807F807F006000600060006060
:1042E000007F007F00600060006000600060006090
:1042F0000000000000000000001E003F80318061CF
:104300000060006000608063806380618061803154
:10431000803F001E000000000000000080618061FE
:104320008061806180618061807F807F8061806149
:1043300080618061806180610000000000000000F9
:10434000003F003F000C000C000C000C000C000CA7
:10435000000C000C000C000C003F003F00000000AF
:104360000000000080018001800180018001800147
:10437000800180018001806180618073003F001EA8
:104380000000000000000000C06080610063006663
:104390000066006C0078007C006600660063806147
:1043A0008061C0600000000000000000006000604C
:1043B00000600060006000600060006000600060FD
:1043C00000600060807F807F00000000000000002F
:1043D000C071C071C07BC07AC06AC06AC06EC06460
:1043E000C060C060C060C060C060C060000000000D
:1043F0000000000080718071807980798079806D03
:10440000806D806D80658067806780678063806372
:104410000000000000000000001E003F003380612B
:104420008061806180618061806180618061003332
:10443000003F001E0000000000000000007E007F22
:1044400080638061806180618063007F007E0060A6
:1044500000600060006000600000000000000000DC
:10446000001E003F00338061806180618061806157
:104470008061806580670033803F401E000000003F
:1044800000000000007E007F8063806180618063A7
:10449000007F007E00660063006380618061C06011
:1044A0000000000000000000000E001F803180317D
:1044B00000300038001E0007800380618061803179
:1044C000003F001E0000000000000000C0FFC0FF11
:1044D000000C000C000C000C000C000C000C000C7C
:1044E000000C000C000C000C00000000000000009C
:1044F00080618061806180618061806180618061B4
:104500008061806180618073003F001E00000000B8
:1045100000000000C060C060C06080318031803128
:10452000001B001B001B001B000E000E000E0004F1
:104530000000000000000000C0C0C0C0C0C0C0C07B
:10454000C0C0C0CC804C804C805E80528052807352
:10455000806180610000000000000000C0C0806039
:1045600080610033003B001E000C000C001E001F89
:10457000003B80718061C0C00000000000000000AE
:10458000C0C08061806100330033001E001E000C3B
:10459000000C000C000C000C000C000C00000000D3
:1045A00000000000803F803F800100030003000600
:1045B000000C000C0018001800300060807F807F25
:1045C000000000000000000F000F000C000C000CA9
:1045D000000C000C000C000C000C000C000C000C7B
:1045E000000C000C000C000F000F00000018001859
:1045F0000018000C000C000C000C00060006000661
:104600000006000300030003000000000000001E7D
:10461000001E000600060006000600060006000652
:104620000006000600060006000600060006001E42
:10463000001E0000000C000C001E001200330033AE
:1046400080618061000000000000000000000000A8
:10465000000000000000000000000000000000005A
:10466000000000000000000000000000000000004A
:10467000000000000000E0FF00000000003800180B
:10468000000C00000000000000000000000000001E
:10469000000000000000000000000000000000001A
:1046A0000000000000000000001F803F80618001CA
:1046B000801F803F80618063807FC03800000000E1
:1046C000000000000060006000600060006E007F7D
:1046D000807380618061806180618073007F006E83
:1046E00000000000000000000000000000000000CA
:1046F000001E003F807380610060006080618073F5
:10470000003F001E0000000000000000800180014A
:1047100080018001801D803F8073806180618061A5
:1047200080618073803F801D000000000000000059
:104730000000000000000000001E003F00738061C8
:10474000807F807F00608071003F001E00000000BD
:1047500000000000C007C00F000C000C807F807FAD
:10476000000C000C000C000C000C000C000C000CE9
:104770000000000000000000000000000000801D9C
:10478000803F807380618061806180618073803F41
:10479000801D80018063007F003E0000006000609B
:1047A00000600060006F807F807180618061806147
:1047B0008061806180618061000000000000000075
:1047C0000006000600000000003E003E0006000655
:1047D00000060006000600060006000600000000B5
:1047E00000000006000600000000003E003E00063B
:1047F0000006000600060006000600060006000689
:104800000046007E003C0000006000600060006028
:10481000806100630066006C007C007600630063CA
:104820008061C0600000000000000000003E003E0B
:104830000006000600060006000600060006000648
:104840000006000600060006000000000000000050
:10485000000000000000000080DDC0FFC0CEC0CC22
:10486000C0CCC0CCC0CCC0CCC0CCC0CC0000000000
:10487000000000000000000000000000006F807FCA
:104880008071806180618061806180618061806110
:104890000000000000000000000000000000000018
:1048A000001E003F80738061806180618061807341
:1048B000003F001E0000000000000000000000009B
:1048C0000000006E007F8073806180618061806184
:1048D0008073007F006E0060006000600060000078
:1048E000000000000000801D803F807380618061B7
:1048F000806180618073803F801D80018001800124
:104900008001000000000000000000000067803F00
:10491000003900300030003000300030003000300E
:104920000000000000000000000000000000000087
:10493000001E803F80610060007F803F80018061B9
:10494000007F001E000000000000000000000008C2
:1049500000180018007F007F0018001800180018C9
:1049600000180018801F800F0000000000000000E9
:1049700000000000000000008061806180618061B3
:104980008061806180618063807F803D00000000E5
:10499000000000000000000000000000C060803146
:1049A00080318031001B001B001B000E000E000632
:1049B00000000000000000000000000000000000F7
:1049C00080DD80DD80DD00550055005500770077E3
:1049D0000022002200000000000000000000000093
:1049E00000000000806100330033001E000C000C4A
:1049F000001E003300338061000000000000000052
:104A000000000000000080618061803100330033CD
:104A1000001B001B001B000E000E000E001C007C83
:104A2000007000000000000000000000C07FC07F98
:104A3000800100030006000C00180030C07FC07F1A
:104A4000000000000000800380070006000600064A
:104A500000060006000E001C001C000E00060006EA
:104A60000006000600068007800300060006000618
:104A70000006000600060006000600060006000606
:104A800000060006000600060006000600060038C4
:104A9000003C000C000C000C000C000C000E000789
:104AA0000007000E000C000C000C000C000C003C79
:104AB00000380000000000000000000000000000BE
:104AC0008038807F004700000000000000000000E8
:104AD0000000000000000000F84A0008000000206C
:104AE00020000000C43C0008184B000820000020F3
:104AF000B80F0000D43C00080000000000000000D7
:104B0000000000000A000000E600000001000000B4
:084B1000100000000024F40075
:04000005080001C529
:00000001FF
